{
  "_format": "hh-sol-artifact-1",
  "contractName": "EtherbaseUpgradeable",
  "sourceName": "contracts/EtherbaseUpgradeable.sol",
  "abi": [
    {
      "anonymous": false,
      "inputs": [
        {
          "indexed": false,
          "internalType": "address",
          "name": "sender",
          "type": "address"
        },
        {
          "indexed": false,
          "internalType": "uint256",
          "name": "amount",
          "type": "uint256"
        }
      ],
      "name": "EtherReceived",
      "type": "event"
    },
    {
      "anonymous": false,
      "inputs": [
        {
          "indexed": false,
          "internalType": "address",
          "name": "receiver",
          "type": "address"
        },
        {
          "indexed": false,
          "internalType": "uint256",
          "name": "amount",
          "type": "uint256"
        }
      ],
      "name": "EtherSent",
      "type": "event"
    },
    {
      "anonymous": false,
      "inputs": [
        {
          "indexed": true,
          "internalType": "bytes32",
          "name": "role",
          "type": "bytes32"
        },
        {
          "indexed": true,
          "internalType": "bytes32",
          "name": "previousAdminRole",
          "type": "bytes32"
        },
        {
          "indexed": true,
          "internalType": "bytes32",
          "name": "newAdminRole",
          "type": "bytes32"
        }
      ],
      "name": "RoleAdminChanged",
      "type": "event"
    },
    {
      "anonymous": false,
      "inputs": [
        {
          "indexed": true,
          "internalType": "bytes32",
          "name": "role",
          "type": "bytes32"
        },
        {
          "indexed": true,
          "internalType": "address",
          "name": "account",
          "type": "address"
        },
        {
          "indexed": true,
          "internalType": "address",
          "name": "sender",
          "type": "address"
        }
      ],
      "name": "RoleGranted",
      "type": "event"
    },
    {
      "anonymous": false,
      "inputs": [
        {
          "indexed": true,
          "internalType": "bytes32",
          "name": "role",
          "type": "bytes32"
        },
        {
          "indexed": true,
          "internalType": "address",
          "name": "account",
          "type": "address"
        },
        {
          "indexed": true,
          "internalType": "address",
          "name": "sender",
          "type": "address"
        }
      ],
      "name": "RoleRevoked",
      "type": "event"
    },
    {
      "inputs": [],
      "name": "DEFAULT_ADMIN_ROLE",
      "outputs": [
        {
          "internalType": "bytes32",
          "name": "",
          "type": "bytes32"
        }
      ],
      "stateMutability": "view",
      "type": "function"
    },
    {
      "inputs": [],
      "name": "ETHER_MANAGER_ROLE",
      "outputs": [
        {
          "internalType": "bytes32",
          "name": "",
          "type": "bytes32"
        }
      ],
      "stateMutability": "view",
      "type": "function"
    },
    {
      "inputs": [
        {
          "internalType": "bytes32",
          "name": "role",
          "type": "bytes32"
        }
      ],
      "name": "getRoleAdmin",
      "outputs": [
        {
          "internalType": "bytes32",
          "name": "",
          "type": "bytes32"
        }
      ],
      "stateMutability": "view",
      "type": "function"
    },
    {
      "inputs": [
        {
          "internalType": "bytes32",
          "name": "role",
          "type": "bytes32"
        },
        {
          "internalType": "uint256",
          "name": "index",
          "type": "uint256"
        }
      ],
      "name": "getRoleMember",
      "outputs": [
        {
          "internalType": "address",
          "name": "",
          "type": "address"
        }
      ],
      "stateMutability": "view",
      "type": "function"
    },
    {
      "inputs": [
        {
          "internalType": "bytes32",
          "name": "role",
          "type": "bytes32"
        }
      ],
      "name": "getRoleMemberCount",
      "outputs": [
        {
          "internalType": "uint256",
          "name": "",
          "type": "uint256"
        }
      ],
      "stateMutability": "view",
      "type": "function"
    },
    {
      "inputs": [
        {
          "internalType": "bytes32",
          "name": "role",
          "type": "bytes32"
        },
        {
          "internalType": "address",
          "name": "account",
          "type": "address"
        }
      ],
      "name": "grantRole",
      "outputs": [],
      "stateMutability": "nonpayable",
      "type": "function"
    },
    {
      "inputs": [
        {
          "internalType": "bytes32",
          "name": "role",
          "type": "bytes32"
        },
        {
          "internalType": "address",
          "name": "account",
          "type": "address"
        }
      ],
      "name": "hasRole",
      "outputs": [
        {
          "internalType": "bool",
          "name": "",
          "type": "bool"
        }
      ],
      "stateMutability": "view",
      "type": "function"
    },
    {
      "inputs": [
        {
          "internalType": "address",
          "name": "schainOwner",
          "type": "address"
        }
      ],
      "name": "initialize",
      "outputs": [],
      "stateMutability": "nonpayable",
      "type": "function"
    },
    {
      "inputs": [
        {
          "internalType": "address payable",
          "name": "receiver",
          "type": "address"
        },
        {
          "internalType": "uint256",
          "name": "amount",
          "type": "uint256"
        }
      ],
      "name": "partiallyRetrieve",
      "outputs": [],
      "stateMutability": "nonpayable",
      "type": "function"
    },
    {
      "inputs": [
        {
          "internalType": "bytes32",
          "name": "role",
          "type": "bytes32"
        },
        {
          "internalType": "address",
          "name": "account",
          "type": "address"
        }
      ],
      "name": "renounceRole",
      "outputs": [],
      "stateMutability": "nonpayable",
      "type": "function"
    },
    {
      "inputs": [
        {
          "internalType": "address payable",
          "name": "receiver",
          "type": "address"
        }
      ],
      "name": "retrieve",
      "outputs": [],
      "stateMutability": "nonpayable",
      "type": "function"
    },
    {
      "inputs": [
        {
          "internalType": "bytes32",
          "name": "role",
          "type": "bytes32"
        },
        {
          "internalType": "address",
          "name": "account",
          "type": "address"
        }
      ],
      "name": "revokeRole",
      "outputs": [],
      "stateMutability": "nonpayable",
      "type": "function"
    },
    {
      "inputs": [
        {
          "internalType": "bytes4",
          "name": "interfaceId",
          "type": "bytes4"
        }
      ],
      "name": "supportsInterface",
      "outputs": [
        {
          "internalType": "bool",
          "name": "",
          "type": "bool"
        }
      ],
      "stateMutability": "view",
      "type": "function"
    },
    {
      "stateMutability": "payable",
      "type": "receive"
    }
  ],
  "bytecode": "0x608060405234801561001057600080fd5b50610fc7806100206000396000f3fe6080604052600436106100c65760003560e01c80639010d07c1161007f578063bc2a1e8d11610059578063bc2a1e8d1461026c578063c4d66de81461028e578063ca15c873146102ae578063d547741f146102ce57600080fd5b80639010d07c146101ff57806391d1485414610237578063a217fddf1461025757600080fd5b806301ffc9a71461010a5780630a79309b1461013f578063204a3e9314610161578063248a9ca3146101815780632f2ff15d146101bf57806336568abe146101df57600080fd5b3661010557604080513381523460208201527f1e57e3bb474320be3d2c77138f75b7c3941292d647f5f9634e33a8e94e0e069b910160405180910390a1005b600080fd5b34801561011657600080fd5b5061012a610125366004610c9e565b6102ee565b60405190151581526020015b60405180910390f35b34801561014b57600080fd5b5061015f61015a366004610cdd565b610319565b005b34801561016d57600080fd5b5061015f61017c366004610cfa565b61038f565b34801561018d57600080fd5b506101b161019c366004610d26565b60009081526065602052604090206001015490565b604051908152602001610136565b3480156101cb57600080fd5b5061015f6101da366004610d3f565b61050b565b3480156101eb57600080fd5b5061015f6101fa366004610d3f565b610531565b34801561020b57600080fd5b5061021f61021a366004610d6f565b6105af565b6040516001600160a01b039091168152602001610136565b34801561024357600080fd5b5061012a610252366004610d3f565b6105ce565b34801561026357600080fd5b506101b1600081565b34801561027857600080fd5b506101b1600080516020610f7283398151915281565b34801561029a57600080fd5b5061015f6102a9366004610cdd565b6105f9565b3480156102ba57600080fd5b506101b16102c9366004610d26565b6106dd565b3480156102da57600080fd5b5061015f6102e9366004610d3f565b6106f4565b60006001600160e01b03198216635a05180f60e01b148061031357506103138261071a565b92915050565b610331600080516020610f72833981519152336105ce565b6103825760405162461bcd60e51b815260206004820152601e60248201527f45544845525f4d414e414745525f524f4c45206973207265717569726564000060448201526064015b60405180910390fd5b61038c814761038f565b50565b6103a7600080516020610f72833981519152336105ce565b6103f35760405162461bcd60e51b815260206004820152601e60248201527f45544845525f4d414e414745525f524f4c4520697320726571756972656400006044820152606401610379565b6001600160a01b0382166104495760405162461bcd60e51b815260206004820152601b60248201527f52656365697665722061646472657373206973206e6f742073657400000000006044820152606401610379565b4781111561048e5760405162461bcd60e51b8152602060048201526012602482015271496e73756666696369656e742066756e647360701b6044820152606401610379565b604080516001600160a01b0384168152602081018390527f6109e2559dfa766aaec7118351d48a523f0a4157f49c8d68749c8ac41318ad12910160405180910390a16040516001600160a01b0383169082156108fc029083906000818181858888f19350505050158015610506573d6000803e3d6000fd5b505050565b600082815260656020526040902060010154610527813361074f565b61050683836107b3565b6001600160a01b03811633146105a15760405162461bcd60e51b815260206004820152602f60248201527f416363657373436f6e74726f6c3a2063616e206f6e6c792072656e6f756e636560448201526e103937b632b9903337b91039b2b63360891b6064820152608401610379565b6105ab82826107d5565b5050565b60008281526097602052604081206105c790836107f7565b9392505050565b60009182526065602090815260408084206001600160a01b0393909316845291905290205460ff1690565b600054610100900460ff166106145760005460ff1615610618565b303b155b61067b5760405162461bcd60e51b815260206004820152602e60248201527f496e697469616c697a61626c653a20636f6e747261637420697320616c72656160448201526d191e481a5b9a5d1a585b1a5e995960921b6064820152608401610379565b600054610100900460ff1615801561069d576000805461ffff19166101011790555b6106a5610803565b6106b0600083610844565b6106c8600080516020610f7283398151915283610844565b80156105ab576000805461ff00191690555050565b60008181526097602052604081206103139061084e565b600082815260656020526040902060010154610710813361074f565b61050683836107d5565b60006001600160e01b03198216637965db0b60e01b148061031357506301ffc9a760e01b6001600160e01b0319831614610313565b61075982826105ce565b6105ab57610771816001600160a01b03166014610858565b61077c836020610858565b60405160200161078d929190610dc1565b60408051601f198184030181529082905262461bcd60e51b825261037991600401610e36565b6107bd82826109f4565b60008281526097602052604090206105069082610a7a565b6107df8282610a8f565b60008281526097602052604090206105069082610af6565b60006105c78383610b0b565b600054610100900460ff1661082a5760405162461bcd60e51b815260040161037990610e69565b610832610b35565b61083a610b35565b610842610b35565b565b6105ab82826107b3565b6000610313825490565b60606000610867836002610eca565b610872906002610ee9565b67ffffffffffffffff81111561088a5761088a610f01565b6040519080825280601f01601f1916602001820160405280156108b4576020820181803683370190505b509050600360fc1b816000815181106108cf576108cf610f17565b60200101906001600160f81b031916908160001a905350600f60fb1b816001815181106108fe576108fe610f17565b60200101906001600160f81b031916908160001a9053506000610922846002610eca565b61092d906001610ee9565b90505b60018111156109a5576f181899199a1a9b1b9c1cb0b131b232b360811b85600f166010811061096157610961610f17565b1a60f81b82828151811061097757610977610f17565b60200101906001600160f81b031916908160001a90535060049490941c9361099e81610f2d565b9050610930565b5083156105c75760405162461bcd60e51b815260206004820181905260248201527f537472696e67733a20686578206c656e67746820696e73756666696369656e746044820152606401610379565b6109fe82826105ce565b6105ab5760008281526065602090815260408083206001600160a01b03851684529091529020805460ff19166001179055610a363390565b6001600160a01b0316816001600160a01b0316837f2f8788117e7eff1d82e926ec794901d17c78024a50270940304540a733656f0d60405160405180910390a45050565b60006105c7836001600160a01b038416610b5c565b610a9982826105ce565b156105ab5760008281526065602090815260408083206001600160a01b0385168085529252808320805460ff1916905551339285917ff6391f5c32d9c69d2a47ea670b442974b53935d1edc7fd64eb21e047a839171b9190a45050565b60006105c7836001600160a01b038416610bab565b6000826000018281548110610b2257610b22610f17565b9060005260206000200154905092915050565b600054610100900460ff166108425760405162461bcd60e51b815260040161037990610e69565b6000818152600183016020526040812054610ba357508154600181810184556000848152602080822090930184905584548482528286019093526040902091909155610313565b506000610313565b60008181526001830160205260408120548015610c94576000610bcf600183610f44565b8554909150600090610be390600190610f44565b9050818114610c48576000866000018281548110610c0357610c03610f17565b9060005260206000200154905080876000018481548110610c2657610c26610f17565b6000918252602080832090910192909255918252600188019052604090208390555b8554869080610c5957610c59610f5b565b600190038181906000526020600020016000905590558560010160008681526020019081526020016000206000905560019350505050610313565b6000915050610313565b600060208284031215610cb057600080fd5b81356001600160e01b0319811681146105c757600080fd5b6001600160a01b038116811461038c57600080fd5b600060208284031215610cef57600080fd5b81356105c781610cc8565b60008060408385031215610d0d57600080fd5b8235610d1881610cc8565b946020939093013593505050565b600060208284031215610d3857600080fd5b5035919050565b60008060408385031215610d5257600080fd5b823591506020830135610d6481610cc8565b809150509250929050565b60008060408385031215610d8257600080fd5b50508035926020909101359150565b60005b83811015610dac578181015183820152602001610d94565b83811115610dbb576000848401525b50505050565b7f416363657373436f6e74726f6c3a206163636f756e7420000000000000000000815260008351610df9816017850160208801610d91565b7001034b99036b4b9b9b4b733903937b6329607d1b6017918401918201528351610e2a816028840160208801610d91565b01602801949350505050565b6020815260008251806020840152610e55816040850160208701610d91565b601f01601f19169190910160400192915050565b6020808252602b908201527f496e697469616c697a61626c653a20636f6e7472616374206973206e6f74206960408201526a6e697469616c697a696e6760a81b606082015260800190565b634e487b7160e01b600052601160045260246000fd5b6000816000190483118215151615610ee457610ee4610eb4565b500290565b60008219821115610efc57610efc610eb4565b500190565b634e487b7160e01b600052604160045260246000fd5b634e487b7160e01b600052603260045260246000fd5b600081610f3c57610f3c610eb4565b506000190190565b600082821015610f5657610f56610eb4565b500390565b634e487b7160e01b600052603160045260246000fdfee0ba7b49edc651b7ad93b374c67f1e9a0d37370168bbb86b81c569ebfa15f046a264697066735822122089ed1c77a4c4aa2c45ef2b7eca31e72d1187590a85f11b898eee9713084e184a64736f6c634300080b0033",
  "linkReferences": {},
  "deployedLinkReferences": {}
}