{
  "_format": "hh-sol-artifact-1",
  "contractName": "BPool",
  "sourceName": "contracts/pools/balancer/BPool.sol",
  "abi": [
    {
      "anonymous": false,
      "inputs": [
        {
          "indexed": true,
          "internalType": "address",
          "name": "src",
          "type": "address"
        },
        {
          "indexed": true,
          "internalType": "address",
          "name": "dst",
          "type": "address"
        },
        {
          "indexed": false,
          "internalType": "uint256",
          "name": "amt",
          "type": "uint256"
        }
      ],
      "name": "Approval",
      "type": "event"
    },
    {
      "anonymous": false,
      "inputs": [
        {
          "indexed": false,
          "internalType": "address",
          "name": "to",
          "type": "address"
        },
        {
          "indexed": false,
          "internalType": "address",
          "name": "token",
          "type": "address"
        },
        {
          "indexed": false,
          "internalType": "uint256",
          "name": "amount",
          "type": "uint256"
        }
      ],
      "name": "ConsumeMarketFee",
      "type": "event"
    },
    {
      "anonymous": false,
      "inputs": [
        {
          "indexed": false,
          "internalType": "address",
          "name": "token",
          "type": "address"
        },
        {
          "indexed": false,
          "internalType": "uint256",
          "name": "oldBalance",
          "type": "uint256"
        },
        {
          "indexed": false,
          "internalType": "uint256",
          "name": "newBalance",
          "type": "uint256"
        }
      ],
      "name": "Gulped",
      "type": "event"
    },
    {
      "anonymous": false,
      "inputs": [
        {
          "indexed": false,
          "internalType": "uint256",
          "name": "bptAmount",
          "type": "uint256"
        }
      ],
      "name": "LOG_BPT",
      "type": "event"
    },
    {
      "anonymous": false,
      "inputs": [
        {
          "indexed": false,
          "internalType": "uint256",
          "name": "bptAmount",
          "type": "uint256"
        }
      ],
      "name": "LOG_BPT_SS",
      "type": "event"
    },
    {
      "anonymous": false,
      "inputs": [
        {
          "indexed": true,
          "internalType": "bytes4",
          "name": "sig",
          "type": "bytes4"
        },
        {
          "indexed": true,
          "internalType": "address",
          "name": "caller",
          "type": "address"
        },
        {
          "indexed": false,
          "internalType": "uint256",
          "name": "timestamp",
          "type": "uint256"
        },
        {
          "indexed": false,
          "internalType": "bytes",
          "name": "data",
          "type": "bytes"
        }
      ],
      "name": "LOG_CALL",
      "type": "event"
    },
    {
      "anonymous": false,
      "inputs": [
        {
          "indexed": true,
          "internalType": "address",
          "name": "caller",
          "type": "address"
        },
        {
          "indexed": true,
          "internalType": "address",
          "name": "tokenOut",
          "type": "address"
        },
        {
          "indexed": false,
          "internalType": "uint256",
          "name": "tokenAmountOut",
          "type": "uint256"
        },
        {
          "indexed": false,
          "internalType": "uint256",
          "name": "timestamp",
          "type": "uint256"
        }
      ],
      "name": "LOG_EXIT",
      "type": "event"
    },
    {
      "anonymous": false,
      "inputs": [
        {
          "indexed": true,
          "internalType": "address",
          "name": "caller",
          "type": "address"
        },
        {
          "indexed": true,
          "internalType": "address",
          "name": "tokenIn",
          "type": "address"
        },
        {
          "indexed": false,
          "internalType": "uint256",
          "name": "tokenAmountIn",
          "type": "uint256"
        },
        {
          "indexed": false,
          "internalType": "uint256",
          "name": "timestamp",
          "type": "uint256"
        }
      ],
      "name": "LOG_JOIN",
      "type": "event"
    },
    {
      "anonymous": false,
      "inputs": [
        {
          "indexed": true,
          "internalType": "address",
          "name": "caller",
          "type": "address"
        },
        {
          "indexed": true,
          "internalType": "address",
          "name": "baseToken",
          "type": "address"
        },
        {
          "indexed": false,
          "internalType": "uint256",
          "name": "baseTokenAmountIn",
          "type": "uint256"
        },
        {
          "indexed": false,
          "internalType": "uint256",
          "name": "baseTokenWeight",
          "type": "uint256"
        },
        {
          "indexed": true,
          "internalType": "address",
          "name": "datatoken",
          "type": "address"
        },
        {
          "indexed": false,
          "internalType": "uint256",
          "name": "datatokenAmountIn",
          "type": "uint256"
        },
        {
          "indexed": false,
          "internalType": "uint256",
          "name": "datatokenWeight",
          "type": "uint256"
        }
      ],
      "name": "LOG_SETUP",
      "type": "event"
    },
    {
      "anonymous": false,
      "inputs": [
        {
          "indexed": true,
          "internalType": "address",
          "name": "caller",
          "type": "address"
        },
        {
          "indexed": true,
          "internalType": "address",
          "name": "tokenIn",
          "type": "address"
        },
        {
          "indexed": true,
          "internalType": "address",
          "name": "tokenOut",
          "type": "address"
        },
        {
          "indexed": false,
          "internalType": "uint256",
          "name": "tokenAmountIn",
          "type": "uint256"
        },
        {
          "indexed": false,
          "internalType": "uint256",
          "name": "tokenAmountOut",
          "type": "uint256"
        },
        {
          "indexed": false,
          "internalType": "uint256",
          "name": "timestamp",
          "type": "uint256"
        },
        {
          "indexed": false,
          "internalType": "uint256",
          "name": "inBalance",
          "type": "uint256"
        },
        {
          "indexed": false,
          "internalType": "uint256",
          "name": "outBalance",
          "type": "uint256"
        },
        {
          "indexed": false,
          "internalType": "uint256",
          "name": "newSpotPrice",
          "type": "uint256"
        }
      ],
      "name": "LOG_SWAP",
      "type": "event"
    },
    {
      "anonymous": false,
      "inputs": [
        {
          "indexed": false,
          "internalType": "address",
          "name": "caller",
          "type": "address"
        },
        {
          "indexed": false,
          "internalType": "address",
          "name": "OPCWallet",
          "type": "address"
        },
        {
          "indexed": false,
          "internalType": "address",
          "name": "token",
          "type": "address"
        },
        {
          "indexed": false,
          "internalType": "uint256",
          "name": "amount",
          "type": "uint256"
        }
      ],
      "name": "OPCFee",
      "type": "event"
    },
    {
      "anonymous": false,
      "inputs": [
        {
          "indexed": false,
          "internalType": "address",
          "name": "caller",
          "type": "address"
        },
        {
          "indexed": false,
          "internalType": "address",
          "name": "marketAddress",
          "type": "address"
        },
        {
          "indexed": false,
          "internalType": "address",
          "name": "token",
          "type": "address"
        },
        {
          "indexed": false,
          "internalType": "uint256",
          "name": "amount",
          "type": "uint256"
        }
      ],
      "name": "PublishMarketFee",
      "type": "event"
    },
    {
      "anonymous": false,
      "inputs": [
        {
          "indexed": false,
          "internalType": "address",
          "name": "caller",
          "type": "address"
        },
        {
          "indexed": false,
          "internalType": "address",
          "name": "newMarketCollector",
          "type": "address"
        },
        {
          "indexed": false,
          "internalType": "uint256",
          "name": "swapFee",
          "type": "uint256"
        }
      ],
      "name": "PublishMarketFeeChanged",
      "type": "event"
    },
    {
      "anonymous": false,
      "inputs": [
        {
          "indexed": false,
          "internalType": "uint256",
          "name": "LPFeeAmount",
          "type": "uint256"
        },
        {
          "indexed": false,
          "internalType": "uint256",
          "name": "oceanFeeAmount",
          "type": "uint256"
        },
        {
          "indexed": false,
          "internalType": "uint256",
          "name": "marketFeeAmount",
          "type": "uint256"
        },
        {
          "indexed": false,
          "internalType": "uint256",
          "name": "consumeMarketFeeAmount",
          "type": "uint256"
        },
        {
          "indexed": false,
          "internalType": "address",
          "name": "tokenFeeAddress",
          "type": "address"
        }
      ],
      "name": "SWAP_FEES",
      "type": "event"
    },
    {
      "anonymous": false,
      "inputs": [
        {
          "indexed": false,
          "internalType": "address",
          "name": "caller",
          "type": "address"
        },
        {
          "indexed": false,
          "internalType": "uint256",
          "name": "amount",
          "type": "uint256"
        }
      ],
      "name": "SwapFeeChanged",
      "type": "event"
    },
    {
      "anonymous": false,
      "inputs": [
        {
          "indexed": true,
          "internalType": "address",
          "name": "src",
          "type": "address"
        },
        {
          "indexed": true,
          "internalType": "address",
          "name": "dst",
          "type": "address"
        },
        {
          "indexed": false,
          "internalType": "uint256",
          "name": "amt",
          "type": "uint256"
        }
      ],
      "name": "Transfer",
      "type": "event"
    },
    {
      "inputs": [],
      "name": "BONE",
      "outputs": [
        {
          "internalType": "uint256",
          "name": "",
          "type": "uint256"
        }
      ],
      "stateMutability": "view",
      "type": "function"
    },
    {
      "inputs": [],
      "name": "BPOW_PRECISION",
      "outputs": [
        {
          "internalType": "uint256",
          "name": "",
          "type": "uint256"
        }
      ],
      "stateMutability": "view",
      "type": "function"
    },
    {
      "inputs": [],
      "name": "EXIT_FEE",
      "outputs": [
        {
          "internalType": "uint256",
          "name": "",
          "type": "uint256"
        }
      ],
      "stateMutability": "view",
      "type": "function"
    },
    {
      "inputs": [],
      "name": "INIT_POOL_SUPPLY",
      "outputs": [
        {
          "internalType": "uint256",
          "name": "",
          "type": "uint256"
        }
      ],
      "stateMutability": "view",
      "type": "function"
    },
    {
      "inputs": [],
      "name": "MAX_BOUND_TOKENS",
      "outputs": [
        {
          "internalType": "uint256",
          "name": "",
          "type": "uint256"
        }
      ],
      "stateMutability": "view",
      "type": "function"
    },
    {
      "inputs": [],
      "name": "MAX_BPOW_BASE",
      "outputs": [
        {
          "internalType": "uint256",
          "name": "",
          "type": "uint256"
        }
      ],
      "stateMutability": "view",
      "type": "function"
    },
    {
      "inputs": [],
      "name": "MAX_FEE",
      "outputs": [
        {
          "internalType": "uint256",
          "name": "",
          "type": "uint256"
        }
      ],
      "stateMutability": "view",
      "type": "function"
    },
    {
      "inputs": [],
      "name": "MAX_IN_RATIO",
      "outputs": [
        {
          "internalType": "uint256",
          "name": "",
          "type": "uint256"
        }
      ],
      "stateMutability": "view",
      "type": "function"
    },
    {
      "inputs": [],
      "name": "MAX_OUT_RATIO",
      "outputs": [
        {
          "internalType": "uint256",
          "name": "",
          "type": "uint256"
        }
      ],
      "stateMutability": "view",
      "type": "function"
    },
    {
      "inputs": [],
      "name": "MAX_TOTAL_WEIGHT",
      "outputs": [
        {
          "internalType": "uint256",
          "name": "",
          "type": "uint256"
        }
      ],
      "stateMutability": "view",
      "type": "function"
    },
    {
      "inputs": [],
      "name": "MAX_WEIGHT",
      "outputs": [
        {
          "internalType": "uint256",
          "name": "",
          "type": "uint256"
        }
      ],
      "stateMutability": "view",
      "type": "function"
    },
    {
      "inputs": [],
      "name": "MIN_BALANCE",
      "outputs": [
        {
          "internalType": "uint256",
          "name": "",
          "type": "uint256"
        }
      ],
      "stateMutability": "view",
      "type": "function"
    },
    {
      "inputs": [],
      "name": "MIN_BOUND_TOKENS",
      "outputs": [
        {
          "internalType": "uint256",
          "name": "",
          "type": "uint256"
        }
      ],
      "stateMutability": "view",
      "type": "function"
    },
    {
      "inputs": [],
      "name": "MIN_BPOW_BASE",
      "outputs": [
        {
          "internalType": "uint256",
          "name": "",
          "type": "uint256"
        }
      ],
      "stateMutability": "view",
      "type": "function"
    },
    {
      "inputs": [],
      "name": "MIN_FEE",
      "outputs": [
        {
          "internalType": "uint256",
          "name": "",
          "type": "uint256"
        }
      ],
      "stateMutability": "view",
      "type": "function"
    },
    {
      "inputs": [],
      "name": "MIN_WEIGHT",
      "outputs": [
        {
          "internalType": "uint256",
          "name": "",
          "type": "uint256"
        }
      ],
      "stateMutability": "view",
      "type": "function"
    },
    {
      "inputs": [],
      "name": "_publishMarketCollector",
      "outputs": [
        {
          "internalType": "address",
          "name": "",
          "type": "address"
        }
      ],
      "stateMutability": "view",
      "type": "function"
    },
    {
      "inputs": [],
      "name": "_swapPublishMarketFee",
      "outputs": [
        {
          "internalType": "uint256",
          "name": "",
          "type": "uint256"
        }
      ],
      "stateMutability": "view",
      "type": "function"
    },
    {
      "inputs": [
        {
          "internalType": "address",
          "name": "src",
          "type": "address"
        },
        {
          "internalType": "address",
          "name": "dst",
          "type": "address"
        }
      ],
      "name": "allowance",
      "outputs": [
        {
          "internalType": "uint256",
          "name": "",
          "type": "uint256"
        }
      ],
      "stateMutability": "view",
      "type": "function"
    },
    {
      "inputs": [
        {
          "internalType": "address",
          "name": "dst",
          "type": "address"
        },
        {
          "internalType": "uint256",
          "name": "amt",
          "type": "uint256"
        }
      ],
      "name": "approve",
      "outputs": [
        {
          "internalType": "bool",
          "name": "",
          "type": "bool"
        }
      ],
      "stateMutability": "nonpayable",
      "type": "function"
    },
    {
      "inputs": [
        {
          "internalType": "address",
          "name": "whom",
          "type": "address"
        }
      ],
      "name": "balanceOf",
      "outputs": [
        {
          "internalType": "uint256",
          "name": "",
          "type": "uint256"
        }
      ],
      "stateMutability": "view",
      "type": "function"
    },
    {
      "inputs": [
        {
          "internalType": "uint256[4]",
          "name": "data",
          "type": "uint256[4]"
        },
        {
          "internalType": "uint256",
          "name": "tokenAmountOut",
          "type": "uint256"
        },
        {
          "internalType": "uint256",
          "name": "_consumeMarketSwapFee",
          "type": "uint256"
        }
      ],
      "name": "calcInGivenOut",
      "outputs": [
        {
          "internalType": "uint256",
          "name": "tokenAmountIn",
          "type": "uint256"
        },
        {
          "internalType": "uint256",
          "name": "tokenAmountInBalance",
          "type": "uint256"
        },
        {
          "components": [
            {
              "internalType": "uint256",
              "name": "LPFee",
              "type": "uint256"
            },
            {
              "internalType": "uint256",
              "name": "oceanFeeAmount",
              "type": "uint256"
            },
            {
              "internalType": "uint256",
              "name": "publishMarketFeeAmount",
              "type": "uint256"
            },
            {
              "internalType": "uint256",
              "name": "consumeMarketFee",
              "type": "uint256"
            }
          ],
          "internalType": "struct BMath.swapfees",
          "name": "_swapfees",
          "type": "tuple"
        }
      ],
      "stateMutability": "view",
      "type": "function"
    },
    {
      "inputs": [
        {
          "internalType": "uint256[4]",
          "name": "data",
          "type": "uint256[4]"
        },
        {
          "internalType": "uint256",
          "name": "tokenAmountIn",
          "type": "uint256"
        },
        {
          "internalType": "uint256",
          "name": "_consumeMarketSwapFee",
          "type": "uint256"
        }
      ],
      "name": "calcOutGivenIn",
      "outputs": [
        {
          "internalType": "uint256",
          "name": "tokenAmountOut",
          "type": "uint256"
        },
        {
          "internalType": "uint256",
          "name": "balanceInToAdd",
          "type": "uint256"
        },
        {
          "components": [
            {
              "internalType": "uint256",
              "name": "LPFee",
              "type": "uint256"
            },
            {
              "internalType": "uint256",
              "name": "oceanFeeAmount",
              "type": "uint256"
            },
            {
              "internalType": "uint256",
              "name": "publishMarketFeeAmount",
              "type": "uint256"
            },
            {
              "internalType": "uint256",
              "name": "consumeMarketFee",
              "type": "uint256"
            }
          ],
          "internalType": "struct BMath.swapfees",
          "name": "_swapfees",
          "type": "tuple"
        }
      ],
      "stateMutability": "view",
      "type": "function"
    },
    {
      "inputs": [
        {
          "internalType": "address",
          "name": "tokenOut",
          "type": "address"
        },
        {
          "internalType": "uint256",
          "name": "tokenAmountOut",
          "type": "uint256"
        }
      ],
      "name": "calcPoolInSingleOut",
      "outputs": [
        {
          "internalType": "uint256",
          "name": "poolAmountIn",
          "type": "uint256"
        }
      ],
      "stateMutability": "view",
      "type": "function"
    },
    {
      "inputs": [
        {
          "internalType": "address",
          "name": "tokenIn",
          "type": "address"
        },
        {
          "internalType": "uint256",
          "name": "tokenAmountIn",
          "type": "uint256"
        }
      ],
      "name": "calcPoolOutSingleIn",
      "outputs": [
        {
          "internalType": "uint256",
          "name": "poolAmountOut",
          "type": "uint256"
        }
      ],
      "stateMutability": "view",
      "type": "function"
    },
    {
      "inputs": [
        {
          "internalType": "address",
          "name": "tokenIn",
          "type": "address"
        },
        {
          "internalType": "uint256",
          "name": "poolAmountOut",
          "type": "uint256"
        }
      ],
      "name": "calcSingleInPoolOut",
      "outputs": [
        {
          "internalType": "uint256",
          "name": "tokenAmountIn",
          "type": "uint256"
        }
      ],
      "stateMutability": "view",
      "type": "function"
    },
    {
      "inputs": [
        {
          "internalType": "address",
          "name": "tokenOut",
          "type": "address"
        },
        {
          "internalType": "uint256",
          "name": "poolAmountIn",
          "type": "uint256"
        }
      ],
      "name": "calcSingleOutPoolIn",
      "outputs": [
        {
          "internalType": "uint256",
          "name": "tokenAmountOut",
          "type": "uint256"
        }
      ],
      "stateMutability": "view",
      "type": "function"
    },
    {
      "inputs": [],
      "name": "collectMarketFee",
      "outputs": [],
      "stateMutability": "nonpayable",
      "type": "function"
    },
    {
      "inputs": [],
      "name": "collectOPC",
      "outputs": [],
      "stateMutability": "nonpayable",
      "type": "function"
    },
    {
      "inputs": [
        {
          "internalType": "address",
          "name": "",
          "type": "address"
        }
      ],
      "name": "communityFees",
      "outputs": [
        {
          "internalType": "uint256",
          "name": "",
          "type": "uint256"
        }
      ],
      "stateMutability": "view",
      "type": "function"
    },
    {
      "inputs": [],
      "name": "decimals",
      "outputs": [
        {
          "internalType": "uint8",
          "name": "",
          "type": "uint8"
        }
      ],
      "stateMutability": "view",
      "type": "function"
    },
    {
      "inputs": [
        {
          "internalType": "address",
          "name": "dst",
          "type": "address"
        },
        {
          "internalType": "uint256",
          "name": "amt",
          "type": "uint256"
        }
      ],
      "name": "decreaseApproval",
      "outputs": [
        {
          "internalType": "bool",
          "name": "",
          "type": "bool"
        }
      ],
      "stateMutability": "nonpayable",
      "type": "function"
    },
    {
      "inputs": [
        {
          "internalType": "uint256",
          "name": "poolAmountIn",
          "type": "uint256"
        },
        {
          "internalType": "uint256",
          "name": "minAmountOut",
          "type": "uint256"
        }
      ],
      "name": "exitswapPoolAmountIn",
      "outputs": [
        {
          "internalType": "uint256",
          "name": "tokenAmountOut",
          "type": "uint256"
        }
      ],
      "stateMutability": "nonpayable",
      "type": "function"
    },
    {
      "inputs": [
        {
          "internalType": "address",
          "name": "tokenIn",
          "type": "address"
        },
        {
          "internalType": "address",
          "name": "tokenOut",
          "type": "address"
        },
        {
          "internalType": "uint256",
          "name": "tokenAmountOut",
          "type": "uint256"
        },
        {
          "internalType": "uint256",
          "name": "_consumeMarketSwapFee",
          "type": "uint256"
        }
      ],
      "name": "getAmountInExactOut",
      "outputs": [
        {
          "internalType": "uint256",
          "name": "tokenAmountIn",
          "type": "uint256"
        },
        {
          "internalType": "uint256",
          "name": "lpFeeAmount",
          "type": "uint256"
        },
        {
          "internalType": "uint256",
          "name": "oceanFeeAmount",
          "type": "uint256"
        },
        {
          "internalType": "uint256",
          "name": "publishMarketSwapFeeAmount",
          "type": "uint256"
        },
        {
          "internalType": "uint256",
          "name": "consumeMarketSwapFeeAmount",
          "type": "uint256"
        }
      ],
      "stateMutability": "view",
      "type": "function"
    },
    {
      "inputs": [
        {
          "internalType": "address",
          "name": "tokenIn",
          "type": "address"
        },
        {
          "internalType": "address",
          "name": "tokenOut",
          "type": "address"
        },
        {
          "internalType": "uint256",
          "name": "tokenAmountIn",
          "type": "uint256"
        },
        {
          "internalType": "uint256",
          "name": "_consumeMarketSwapFee",
          "type": "uint256"
        }
      ],
      "name": "getAmountOutExactIn",
      "outputs": [
        {
          "internalType": "uint256",
          "name": "tokenAmountOut",
          "type": "uint256"
        },
        {
          "internalType": "uint256",
          "name": "lpFeeAmount",
          "type": "uint256"
        },
        {
          "internalType": "uint256",
          "name": "oceanFeeAmount",
          "type": "uint256"
        },
        {
          "internalType": "uint256",
          "name": "publishMarketSwapFeeAmount",
          "type": "uint256"
        },
        {
          "internalType": "uint256",
          "name": "consumeMarketSwapFeeAmount",
          "type": "uint256"
        }
      ],
      "stateMutability": "view",
      "type": "function"
    },
    {
      "inputs": [
        {
          "internalType": "address",
          "name": "token",
          "type": "address"
        }
      ],
      "name": "getBalance",
      "outputs": [
        {
          "internalType": "uint256",
          "name": "",
          "type": "uint256"
        }
      ],
      "stateMutability": "view",
      "type": "function"
    },
    {
      "inputs": [],
      "name": "getBaseTokenAddress",
      "outputs": [
        {
          "internalType": "address",
          "name": "",
          "type": "address"
        }
      ],
      "stateMutability": "view",
      "type": "function"
    },
    {
      "inputs": [],
      "name": "getController",
      "outputs": [
        {
          "internalType": "address",
          "name": "",
          "type": "address"
        }
      ],
      "stateMutability": "view",
      "type": "function"
    },
    {
      "inputs": [],
      "name": "getCurrentMarketFees",
      "outputs": [
        {
          "internalType": "address[]",
          "name": "",
          "type": "address[]"
        },
        {
          "internalType": "uint256[]",
          "name": "",
          "type": "uint256[]"
        }
      ],
      "stateMutability": "view",
      "type": "function"
    },
    {
      "inputs": [],
      "name": "getCurrentOPCFees",
      "outputs": [
        {
          "internalType": "address[]",
          "name": "",
          "type": "address[]"
        },
        {
          "internalType": "uint256[]",
          "name": "",
          "type": "uint256[]"
        }
      ],
      "stateMutability": "view",
      "type": "function"
    },
    {
      "inputs": [],
      "name": "getCurrentTokens",
      "outputs": [
        {
          "internalType": "address[]",
          "name": "tokens",
          "type": "address[]"
        }
      ],
      "stateMutability": "view",
      "type": "function"
    },
    {
      "inputs": [],
      "name": "getDatatokenAddress",
      "outputs": [
        {
          "internalType": "address",
          "name": "",
          "type": "address"
        }
      ],
      "stateMutability": "view",
      "type": "function"
    },
    {
      "inputs": [
        {
          "internalType": "address",
          "name": "token",
          "type": "address"
        }
      ],
      "name": "getDenormalizedWeight",
      "outputs": [
        {
          "internalType": "uint256",
          "name": "",
          "type": "uint256"
        }
      ],
      "stateMutability": "view",
      "type": "function"
    },
    {
      "inputs": [],
      "name": "getFinalTokens",
      "outputs": [
        {
          "internalType": "address[]",
          "name": "tokens",
          "type": "address[]"
        }
      ],
      "stateMutability": "view",
      "type": "function"
    },
    {
      "inputs": [],
      "name": "getId",
      "outputs": [
        {
          "internalType": "uint8",
          "name": "",
          "type": "uint8"
        }
      ],
      "stateMutability": "pure",
      "type": "function"
    },
    {
      "inputs": [],
      "name": "getMarketFee",
      "outputs": [
        {
          "internalType": "uint256",
          "name": "",
          "type": "uint256"
        }
      ],
      "stateMutability": "view",
      "type": "function"
    },
    {
      "inputs": [
        {
          "internalType": "address",
          "name": "token",
          "type": "address"
        }
      ],
      "name": "getNormalizedWeight",
      "outputs": [
        {
          "internalType": "uint256",
          "name": "",
          "type": "uint256"
        }
      ],
      "stateMutability": "view",
      "type": "function"
    },
    {
      "inputs": [],
      "name": "getNumTokens",
      "outputs": [
        {
          "internalType": "uint256",
          "name": "",
          "type": "uint256"
        }
      ],
      "stateMutability": "view",
      "type": "function"
    },
    {
      "inputs": [],
      "name": "getOPCFee",
      "outputs": [
        {
          "internalType": "uint256",
          "name": "",
          "type": "uint256"
        }
      ],
      "stateMutability": "view",
      "type": "function"
    },
    {
      "inputs": [
        {
          "internalType": "address",
          "name": "tokenIn",
          "type": "address"
        },
        {
          "internalType": "address",
          "name": "tokenOut",
          "type": "address"
        },
        {
          "internalType": "uint256",
          "name": "_consumeMarketSwapFee",
          "type": "uint256"
        }
      ],
      "name": "getSpotPrice",
      "outputs": [
        {
          "internalType": "uint256",
          "name": "spotPrice",
          "type": "uint256"
        }
      ],
      "stateMutability": "view",
      "type": "function"
    },
    {
      "inputs": [],
      "name": "getSwapFee",
      "outputs": [
        {
          "internalType": "uint256",
          "name": "",
          "type": "uint256"
        }
      ],
      "stateMutability": "view",
      "type": "function"
    },
    {
      "inputs": [],
      "name": "getTotalDenormalizedWeight",
      "outputs": [
        {
          "internalType": "uint256",
          "name": "",
          "type": "uint256"
        }
      ],
      "stateMutability": "view",
      "type": "function"
    },
    {
      "inputs": [
        {
          "internalType": "address",
          "name": "token",
          "type": "address"
        }
      ],
      "name": "gulp",
      "outputs": [],
      "stateMutability": "nonpayable",
      "type": "function"
    },
    {
      "inputs": [
        {
          "internalType": "address",
          "name": "dst",
          "type": "address"
        },
        {
          "internalType": "uint256",
          "name": "amt",
          "type": "uint256"
        }
      ],
      "name": "increaseApproval",
      "outputs": [
        {
          "internalType": "bool",
          "name": "",
          "type": "bool"
        }
      ],
      "stateMutability": "nonpayable",
      "type": "function"
    },
    {
      "inputs": [
        {
          "internalType": "address",
          "name": "controller",
          "type": "address"
        },
        {
          "internalType": "address",
          "name": "factory",
          "type": "address"
        },
        {
          "internalType": "uint256[]",
          "name": "swapFees",
          "type": "uint256[]"
        },
        {
          "internalType": "bool",
          "name": "publicSwap",
          "type": "bool"
        },
        {
          "internalType": "bool",
          "name": "finalized",
          "type": "bool"
        },
        {
          "internalType": "address[2]",
          "name": "tokens",
          "type": "address[2]"
        },
        {
          "internalType": "address[1]",
          "name": "feeCollectors",
          "type": "address[1]"
        }
      ],
      "name": "initialize",
      "outputs": [
        {
          "internalType": "bool",
          "name": "",
          "type": "bool"
        }
      ],
      "stateMutability": "nonpayable",
      "type": "function"
    },
    {
      "inputs": [
        {
          "internalType": "address",
          "name": "t",
          "type": "address"
        }
      ],
      "name": "isBound",
      "outputs": [
        {
          "internalType": "bool",
          "name": "",
          "type": "bool"
        }
      ],
      "stateMutability": "view",
      "type": "function"
    },
    {
      "inputs": [],
      "name": "isFinalized",
      "outputs": [
        {
          "internalType": "bool",
          "name": "",
          "type": "bool"
        }
      ],
      "stateMutability": "view",
      "type": "function"
    },
    {
      "inputs": [],
      "name": "isInitialized",
      "outputs": [
        {
          "internalType": "bool",
          "name": "",
          "type": "bool"
        }
      ],
      "stateMutability": "view",
      "type": "function"
    },
    {
      "inputs": [],
      "name": "isPublicSwap",
      "outputs": [
        {
          "internalType": "bool",
          "name": "",
          "type": "bool"
        }
      ],
      "stateMutability": "view",
      "type": "function"
    },
    {
      "inputs": [
        {
          "internalType": "uint256",
          "name": "tokenAmountIn",
          "type": "uint256"
        },
        {
          "internalType": "uint256",
          "name": "minPoolAmountOut",
          "type": "uint256"
        }
      ],
      "name": "joinswapExternAmountIn",
      "outputs": [
        {
          "internalType": "uint256",
          "name": "poolAmountOut",
          "type": "uint256"
        }
      ],
      "stateMutability": "nonpayable",
      "type": "function"
    },
    {
      "inputs": [],
      "name": "name",
      "outputs": [
        {
          "internalType": "string",
          "name": "",
          "type": "string"
        }
      ],
      "stateMutability": "view",
      "type": "function"
    },
    {
      "inputs": [
        {
          "internalType": "address",
          "name": "",
          "type": "address"
        }
      ],
      "name": "publishMarketFees",
      "outputs": [
        {
          "internalType": "uint256",
          "name": "",
          "type": "uint256"
        }
      ],
      "stateMutability": "view",
      "type": "function"
    },
    {
      "inputs": [
        {
          "internalType": "uint256",
          "name": "swapFee",
          "type": "uint256"
        }
      ],
      "name": "setSwapFee",
      "outputs": [],
      "stateMutability": "nonpayable",
      "type": "function"
    },
    {
      "inputs": [
        {
          "internalType": "address",
          "name": "datatokenAddress",
          "type": "address"
        },
        {
          "internalType": "uint256",
          "name": "datatokenAmount",
          "type": "uint256"
        },
        {
          "internalType": "uint256",
          "name": "datatokenWeight",
          "type": "uint256"
        },
        {
          "internalType": "address",
          "name": "baseTokenAddress",
          "type": "address"
        },
        {
          "internalType": "uint256",
          "name": "baseTokenAmount",
          "type": "uint256"
        },
        {
          "internalType": "uint256",
          "name": "baseTokenWeight",
          "type": "uint256"
        }
      ],
      "name": "setup",
      "outputs": [],
      "stateMutability": "nonpayable",
      "type": "function"
    },
    {
      "inputs": [
        {
          "internalType": "address[3]",
          "name": "tokenInOutMarket",
          "type": "address[3]"
        },
        {
          "internalType": "uint256[4]",
          "name": "amountsInOutMaxFee",
          "type": "uint256[4]"
        }
      ],
      "name": "swapExactAmountIn",
      "outputs": [
        {
          "internalType": "uint256",
          "name": "tokenAmountOut",
          "type": "uint256"
        },
        {
          "internalType": "uint256",
          "name": "spotPriceAfter",
          "type": "uint256"
        }
      ],
      "stateMutability": "nonpayable",
      "type": "function"
    },
    {
      "inputs": [
        {
          "internalType": "address[3]",
          "name": "tokenInOutMarket",
          "type": "address[3]"
        },
        {
          "internalType": "uint256[4]",
          "name": "amountsInOutMaxFee",
          "type": "uint256[4]"
        }
      ],
      "name": "swapExactAmountOut",
      "outputs": [
        {
          "internalType": "uint256",
          "name": "tokenAmountIn",
          "type": "uint256"
        },
        {
          "internalType": "uint256",
          "name": "spotPriceAfter",
          "type": "uint256"
        }
      ],
      "stateMutability": "nonpayable",
      "type": "function"
    },
    {
      "inputs": [],
      "name": "symbol",
      "outputs": [
        {
          "internalType": "string",
          "name": "",
          "type": "string"
        }
      ],
      "stateMutability": "view",
      "type": "function"
    },
    {
      "inputs": [],
      "name": "totalSupply",
      "outputs": [
        {
          "internalType": "uint256",
          "name": "",
          "type": "uint256"
        }
      ],
      "stateMutability": "view",
      "type": "function"
    },
    {
      "inputs": [
        {
          "internalType": "address",
          "name": "dst",
          "type": "address"
        },
        {
          "internalType": "uint256",
          "name": "amt",
          "type": "uint256"
        }
      ],
      "name": "transfer",
      "outputs": [
        {
          "internalType": "bool",
          "name": "",
          "type": "bool"
        }
      ],
      "stateMutability": "nonpayable",
      "type": "function"
    },
    {
      "inputs": [
        {
          "internalType": "address",
          "name": "src",
          "type": "address"
        },
        {
          "internalType": "address",
          "name": "dst",
          "type": "address"
        },
        {
          "internalType": "uint256",
          "name": "amt",
          "type": "uint256"
        }
      ],
      "name": "transferFrom",
      "outputs": [
        {
          "internalType": "bool",
          "name": "",
          "type": "bool"
        }
      ],
      "stateMutability": "nonpayable",
      "type": "function"
    },
    {
      "inputs": [
        {
          "internalType": "address",
          "name": "_newCollector",
          "type": "address"
        },
        {
          "internalType": "uint256",
          "name": "_newSwapFee",
          "type": "uint256"
        }
      ],
      "name": "updatePublishMarketFee",
      "outputs": [],
      "stateMutability": "nonpayable",
      "type": "function"
    }
  ],
  "bytecode": "0x608060405234801561001057600080fd5b5061599980620000216000396000f3fe608060405234801561001057600080fd5b506004361061041d5760003560e01c8063867378c51161022b578063bf7db23611610130578063d4cadf68116100b8578063ec09302111610087578063ec09302114610924578063f1b8a9b71461092c578063f8b2cb4f1461093f578063fde924f714610952578063ff9b18501461096457600080fd5b8063d4cadf68146108d0578063d73dd623146108d8578063dd62ed3e146108eb578063e4a28a52146104a457600080fd5b8063c6580d12116100ff578063c6580d1214610892578063c98a59cf1461089a578063caa01148146108ad578063cc77828d146108c0578063cd2ed8fb146108c857600080fd5b8063bf7db2361461084c578063c36596a6146104f7578063c421a3fc14610862578063c44a42831461088a57600080fd5b8063a3b3a16d116101b3578063b7b800a411610182578063b7b800a414610817578063ba019dab1461081f578063bc063e1a14610827578063bc694ea21461082f578063be3bbd2e1461083757600080fd5b8063a3b3a16d146107e9578063a9059cbb146107fc578063ab77a2de1461080f578063b0e0d1361461081757600080fd5b8063936c3477116101fa578063936c34771461079f5780639381cd2b146107a7578063948d8ce6146107af57806395d89b41146107c2578063992e2a92146107e157600080fd5b8063867378c51461075f578063892cdf9e146107675780638c28cbe81461077a5780638d4e40831461078d57600080fd5b8063313ce567116103315780635e123add116102b957806376c7a3c71161028857806376c7a3c7146107135780637a284be41461071b5780637c5918b31461072457806380ca7308146107445780638329ab331461074c57600080fd5b80635e123add146106bc578063638c9e95146106c457806366188463146106d757806370a08231146106ea57600080fd5b8063430ed5d011610300578063430ed5d014610632578063458c3fb5146106455780634df947d01461065657806351705cd0146106675780635d1ca631146106b557600080fd5b8063313ce567146105e557806334e19907146105fa578063392e53cd1461060d5780633950b3fd1461061f57600080fd5b806318f9722a116103b457806329b88a6a1161038357806329b88a6a1461052c5780632eebd6ae146105345780632f37b6241461056f578063300621921461059b5780633018205f146105bb57600080fd5b806318f9722a146104e4578063218b5382146104f757806323b872dd14610506578063284e97a91461051957600080fd5b806309ef3f5b116103f057806309ef3f5b146104ac57806312989260146104c157806318160ddd146104d4578063189d00ca146104dc57600080fd5b806306fdde0314610422578063079492d414610460578063095ea7b31461048157806309a3bbe4146104a4575b600080fd5b60408051808201909152601081526f27b1b2b0b7102837b7b6102a37b5b2b760811b60208201525b6040516104579190615249565b60405180910390f35b61047361046e366004615291565b610977565b604051908152602001610457565b61049461048f3660046152d2565b610a05565b6040519015158152602001610457565b610473610a60565b6104bf6104ba3660046152fe565b610a76565b005b6104736104cf36600461535a565b610ca9565b600954610473565b6104736110c0565b6104bf6104f23660046152d2565b6110d7565b610473670de0b6b3a764000081565b610494610514366004615291565b61124f565b6104946105273660046153b7565b61139e565b61047361168f565b610547610542366004615497565b611709565b604080519586526020860194909452928401919091526060830152608082015260a001610457565b61049461057d3660046154dd565b6001600160a01b03166000908152600d602052604090205460ff1690565b6104736105a93660046154dd565b60056020526000908152604090205481565b600a5461010090046001600160a01b03165b6040516001600160a01b039091168152602001610457565b60125b60405160ff9091168152602001610457565b6104bf6106083660046154fa565b6117e1565b600f54600160a01b900460ff16610494565b61047361062d3660046152d2565b6118db565b6104736106403660046152d2565b611940565b6003546001600160a01b03166105cd565b6004546001600160a01b03166105cd565b61067a610675366004615529565b61199d565b6040805193845260208085019390935281518482015291810151606080850191909152918101516080840152015160a082015260c001610457565b60016105e8565b600054610473565b600b546105cd906001600160a01b031681565b6104946106e53660046152d2565b611b50565b6104736106f83660046154dd565b6001600160a01b031660009081526007602052604090205490565b610473611c26565b61047360005481565b6104736107323660046154dd565b60066020526000908152604090205481565b6104bf611c3a565b61047361075a36600461535a565b611dc7565b61047361219b565b61067a610775366004615529565b6121b2565b6104bf6107883660046154dd565b61234a565b600b54600160a01b900460ff16610494565b6104736124bc565b6104736124e9565b6104736107bd3660046154dd565b6124fc565b60408051808201909152600381526213d41560ea1b602082015261044a565b61047361254e565b6104736107f73660046152d2565b61256c565b61049461080a3660046152d2565b6125c9565b6104bf6125df565b610473600281565b610473600181565b6104736127a0565b6104736127b3565b61083f6127d2565b60405161045791906155f9565b610854612881565b60405161045792919061560c565b610875610870366004615663565b6129f1565b60408051928352602083019190915201610457565b6108546131c0565b610473600081565b6108756108a8366004615663565b613325565b6105476108bb366004615497565b613a4f565b61083f613af9565b600c54610473565b600154610473565b6104946108e63660046152d2565b613b1f565b6104736108f93660046156a5565b6001600160a01b03918216600090815260086020908152604080832093909416825291909152205490565b610473613b92565b61047361093a3660046154dd565b613ba5565b61047361094d3660046154dd565b613bfe565b600a54600160a81b900460ff16610494565b6104736109723660046152d2565b613c4c565b600a5460009060ff16156109a65760405162461bcd60e51b815260040161099d906156d3565b60405180910390fd5b6109af84613ca9565b6109b883613ca9565b6001600160a01b038085166000908152600d60205260408082209286168252902060038083015460028085015492840154908401546109f993919088613d04565b925050505b9392505050565b3360008181526008602090815260408083206001600160a01b0387168085529252808320859055519192909160008051602061594483398151915290610a4e9086815260200190565b60405180910390a35060015b92915050565b610a73670de0b6b3a7640000603261570e565b81565b600a5460ff1615610a995760405162461bcd60e51b815260040161099d906156d3565b600a8054600160ff19909116179081905561010090046001600160a01b03163314610aff5760405162461bcd60e51b815260206004820152601660248201527522a9292fa4a72b20a624a22fa1a7a72a2927a62622a960511b604482015260640161099d565b6003546001600160a01b03878116911614610b5c5760405162461bcd60e51b815260206004820152601d60248201527f4552525f494e56414c49445f44415441544f4b454e5f41444452455353000000604482015260640161099d565b6004546001600160a01b03848116911614610bb95760405162461bcd60e51b815260206004820152601d60248201527f4552525f494e56414c49445f62617365546f6b656e5f41444452455353000000604482015260640161099d565b610bc4868686613d90565b604080518681524260208201526001600160a01b038816913391600080516020615924833981519152910160405180910390a3610c02838383613d90565b604080518381524260208201526001600160a01b038516913391600080516020615924833981519152910160405180910390a3610c3d613f7e565b6040805183815260208101839052908101869052606081018590526001600160a01b03808816919085169033907fbece8b4dcdbe446dd65a9288154698e067e3e91de17a1a408c2f531b9f845d739060800160405180910390a45050600a805460ff1916905550505050565b600a5460009060ff1615610ccf5760405162461bcd60e51b815260040161099d906156d3565b600a805460ff19166001179055600b54600160a01b900460ff16610d055760405162461bcd60e51b815260040161099d9061572d565b600454610d1a906001600160a01b0316613ca9565b6004546001600160a01b03166000908152600d602052604090206003810154600954610d47919086613fdd565b915082821015610d695760405162461bcd60e51b815260040161099d90615758565b6004546001600160a01b03166000908152600d6020526040902060030154610dae90610d9e6002670de0b6b3a7640000615795565b610da99060016157a9565b614087565b821115610df15760405162461bcd60e51b81526020600482015260116024820152704552525f4d41585f4f55545f524154494f60781b604482015260640161099d565b610dff81600301548361416c565b6003820155600454604080518481524260208201526001600160a01b039092169133917f9d9058fd2f25ccc389fec7720abef0ca83472f5abfafd5f10d37f51e6a0493f3910160405180910390a36040518481527ffcda32798d5a9d032f49b37fea876d422f18f6e386e0f07db6029b693624b2c29060200160405180910390a1600f54600354604051630d098ab360e11b81526001600160a01b03918216600482015260248101879052911690631a13156690604401602060405180830381865afa158015610ed3573d6000803e3d6000fd5b505050506040513d601f19601f82011682018060405250810190610ef791906157c1565b1561108557600380546001600160a01b03166000908152600d6020526040812091820154600954610f29919088613fdd565b9050610f3982600301548261416c565b60038381019190915554600a54604080518481524260208201526001600160a01b0393841693610100909304909216917f9d9058fd2f25ccc389fec7720abef0ca83472f5abfafd5f10d37f51e6a0493f3910160405180910390a3600a54610faf9061010090046001600160a01b0316876141c9565b610fb8866141d3565b600354600a54610fda916001600160a01b0390811691610100900416836141dc565b600f5460035460405163054a976360e41b81526001600160a01b03918216600482015260248101849052604481018990529116906354a9763090606401600060405180830381600087803b15801561103157600080fd5b505af1158015611045573d6000803e3d6000fd5b505050507f87b3975661762d852ddf2eeaad6a43b2d93777de7b3b7bdb634283df324561188660405161107a91815260200190565b60405180910390a150505b61108f33856141c9565b611098846141d3565b6004546110af906001600160a01b031633846141dc565b50600a805460ff1916905592915050565b610a736402540be400670de0b6b3a7640000615795565b600b546001600160a01b031633146111295760405162461bcd60e51b815260206004820152601560248201527427a7262c9026a0a925a2aa1021a7a62622a1aa27a960591b604482015260640161099d565b6001600160a01b03821661117f5760405162461bcd60e51b815260206004820152601d60248201527f496e76616c6964205f6e6577436f6c6c6563746f722061646472657373000000604482015260640161099d565b80158061119f575061119b612710670de0b6b3a7640000615795565b8110155b6111bb5760405162461bcd60e51b815260040161099d906157de565b6111ce600a670de0b6b3a7640000615795565b8111156111ed5760405162461bcd60e51b815260040161099d90615803565b600b80546001600160a01b0319166001600160a01b03841690811790915560008290556040517f5e3e722dbd3b6b8071b78568ac80cd0e8ff92e4fb3024e755d504d8f7c2f6f0991611243913391908590615828565b60405180910390a15050565b6000336001600160a01b038516148061128b57506001600160a01b03841660009081526008602090815260408083203384529091529020548211155b6112cf5760405162461bcd60e51b815260206004820152601560248201527422a9292fa12a27a5a2a72fa120a22fa1a0a62622a960591b604482015260640161099d565b6112da8484846141f0565b336001600160a01b0385161480159061131857506001600160a01b038416600090815260086020908152604080832033845290915290205460001914155b15611394576001600160a01b038416600090815260086020908152604080832033845290915290205461134b908361416c565b6001600160a01b03851660008181526008602090815260408083203380855290835292819020859055519384529092600080516020615944833981519152910160405180910390a35b5060019392505050565b600f54600090600160a01b900460ff16156113fb5760405162461bcd60e51b815260206004820152601760248201527f4552525f414c52454144595f494e495449414c495a4544000000000000000000604482015260640161099d565b6001600160a01b0389166114515760405162461bcd60e51b815260206004820152601e60248201527f4552525f494e56414c49445f434f4e54524f4c4c45525f414444524553530000604482015260640161099d565b6001600160a01b0388166114a75760405162461bcd60e51b815260206004820152601b60248201527f4552525f494e56414c49445f464143544f52595f414444524553530000000000604482015260640161099d565b6114bb612710670de0b6b3a7640000615795565b878760008181106114ce576114ce61584c565b9050602002013510156114f35760405162461bcd60e51b815260040161099d906157de565b611506600a670de0b6b3a7640000615795565b878760008181106115195761151961584c565b90506020020135111561153e5760405162461bcd60e51b815260040161099d90615803565b868660018181106115515761155161584c565b90506020020135600014806115925750611575612710670de0b6b3a7640000615795565b878760018181106115885761158861584c565b9050602002013510155b6115ae5760405162461bcd60e51b815260040161099d906157de565b6115c1600a670de0b6b3a7640000615795565b878760018181106115d4576115d461584c565b9050602002013511156115f95760405162461bcd60e51b815260040161099d90615803565b6116828989898980806020026020016040519081016040528093929190818152602001838360200280828437600092019190915250506040805180820182528c93508b9250908a9060029083908390808284376000920191909152505060408051602081810190925291508a906001908390839080828437600092019190915250614302915050565b9998505050505050505050565b6002546004805460405163b8421e2b60e01b81526001600160a01b0391821692810192909252600092169063b8421e2b90602401602060405180830381865afa1580156116e0573d6000803e3d6000fd5b505050506040513d601f19601f820116820180604052508101906117049190615862565b905090565b600080600080600061171a89613ca9565b61172388613ca9565b604080516080810182526001600160a01b03808c166000908152600d6020818152858320600380820154875260029182015483880152948f168085528383528785209586015497870197909752958352529201546060820152906117a86040518060800160405280600081526020016000815260200160008152602001600081525090565b6117b3838b8b6121b2565b805160208201516040830151606090930151949c50909a509850965090945050505050945094509450945094565b600a5461010090046001600160a01b031633146118355760405162461bcd60e51b815260206004820152601260248201527122a9292fa727aa2fa1a7a72a2927a62622a960711b604482015260640161099d565b611849612710670de0b6b3a7640000615795565b8110156118685760405162461bcd60e51b815260040161099d906157de565b61187b600a670de0b6b3a7640000615795565b81111561189a5760405162461bcd60e51b815260040161099d90615803565b600181905560408051338152602081018390527fbca0d601c32979eebac4e8cd06375b6e45d39af80fc06a33f366425b450dfb69910160405180910390a150565b6001600160a01b0382166000908152600d602090815260408083208151608081018352815460ff161515815260018201549381019390935260028101549183019190915260030154606082018190526009546119389190856144b1565b949350505050565b6001600160a01b0382166000908152600d602090815260408083208151608081018352815460ff16151581526001820154938101939093526002810154918301919091526003015460608201819052600954611938919085613fdd565b6000806119cb6040518060800160405280600081526020016000815260200160008152602001600081525090565b60006119e687600360200201518860015b6020020151614564565b905060006119fb88600260200201518861416c565b90506000611a10896002602002015183614564565b90506000611a1e828561467c565b9050611a3281670de0b6b3a764000061416c565b90506000805489611a4161168f565b600154611a4e91906157a9565b611a5891906157a9565b611a6291906157a9565b9050611a90611a798c60005b602002015184614087565b611a8b670de0b6b3a76400008461416c565b614564565b9750611ab388611aae8a610da9670de0b6b3a7640000611aae61168f565b61416c565b866020018181525050611ad888611aae8a610da9670de0b6b3a764000060005461416c565b866040018181525050611afd88611aae8a610da9670de0b6b3a764000060015461416c565b8652611b1988611aae81610da9670de0b6b3a76400008e61416c565b6060870152611b40611b2c8c6000611a6e565b611a8b670de0b6b3a764000060015461416c565b9650505050505093509350939050565b3360009081526008602090815260408083206001600160a01b038616845290915281205480831115611ba5573360009081526008602090815260408083206001600160a01b0388168452909152812055611bd4565b611baf818461416c565b3360009081526008602090815260408083206001600160a01b03891684529091529020555b3360008181526008602090815260408083206001600160a01b03891680855290835292819020549051908152919291600080516020615944833981519152910160405180910390a35060019392505050565b610a73612710670de0b6b3a7640000615795565b6000611c446127d2565b905060005b8151811015611dc357600060066000848481518110611c6a57611c6a61584c565b60200260200101516001600160a01b03166001600160a01b03168152602001908152602001600020549050600060066000858581518110611cad57611cad61584c565b60200260200101516001600160a01b03166001600160a01b03168152602001908152602001600020819055507fbaf1ab77be65c7abf8fcd922bfcf0a749f556ac1a4cdf39c126ffaa1851edb5633600b60009054906101000a90046001600160a01b0316858581518110611d2357611d2361584c565b602002602001015184604051611d6194939291906001600160a01b039485168152928416602084015292166040820152606081019190915260800190565b60405180910390a1600b548351611db0916001600160a01b0316908390869086908110611d9057611d9061584c565b60200260200101516001600160a01b03166147a89092919063ffffffff16565b5080611dbb8161587b565b915050611c49565b5050565b600a5460009060ff1615611ded5760405162461bcd60e51b815260040161099d906156d3565b600a805460ff19166001179055600b54600160a01b900460ff16611e235760405162461bcd60e51b815260040161099d9061572d565b600454611e38906001600160a01b0316613ca9565b6004546001600160a01b03166000908152600d6020526040902060030154611e6d90610da96002670de0b6b3a7640000615795565b831115611eaf5760405162461bcd60e51b815260206004820152601060248201526f4552525f4d41585f494e5f524154494f60801b604482015260640161099d565b6004546001600160a01b03166000908152600d602052604090206003810154600954611edc9190866144b1565b915082821015611efe5760405162461bcd60e51b815260040161099d90615758565b611f0c81600301548561480b565b6003820155600454604080518681524260208201526001600160a01b03909216913391600080516020615924833981519152910160405180910390a36040518281527ffcda32798d5a9d032f49b37fea876d422f18f6e386e0f07db6029b693624b2c29060200160405180910390a1600380546001600160a01b03166000908152600d6020526040812091820154600954611fa891908661485d565b600f54600354604051632afbbacb60e01b81526001600160a01b039182166004820152602481018490529293501690632afbbacb90604401602060405180830381865afa158015611ffd573d6000803e3d6000fd5b505050506040513d601f19601f8201168201806040525081019061202191906157c1565b1561215e57600f5460035460405163ebedb8b360e01b81526001600160a01b0391821660048201526024810184905291169063ebedb8b390604401600060405180830381600087803b15801561207657600080fd5b505af115801561208a573d6000803e3d6000fd5b5050505061209c82600301548261480b565b60038381019190915554600a54604080518481524260208201526001600160a01b039384169361010090930490921691600080516020615924833981519152910160405180910390a36040518481527f87b3975661762d852ddf2eeaad6a43b2d93777de7b3b7bdb634283df324561189060200160405180910390a1612121846148fa565b600a5461213c9061010090046001600160a01b031685614903565b600354600a5461215e916001600160a01b03908116916101009004168361490d565b612167846148fa565b6121713385614903565b600454612188906001600160a01b0316338861490d565b505050600a805460ff1916905592915050565b610a7364e8d4a51000670de0b6b3a7640000615795565b6000806121e06040518060800160405280600081526020016000815260200160008152602001600081525090565b60006121f587600160200201518860036119dc565b905061221386611aae88610da9670de0b6b3a7640000611aae61168f565b82602001818152505061223886611aae88610da9670de0b6b3a764000060005461416c565b82604001818152505061225d86611aae88610da9670de0b6b3a764000060015461416c565b825261227986611aae81610da9670de0b6b3a76400008a61416c565b606083015260008054869061228c61168f565b60015461229991906157a9565b6122a391906157a9565b6122ad91906157a9565b905060006122c3670de0b6b3a76400008361416c565b90506122cf8882614087565b89519091506000906122e590611a8b818561480b565b905060006122f3828661467c565b90506000612309670de0b6b3a76400008361416c565b905061231c8c6002602002015182614087565b9850886123378c89604001518a60200151611aae91906157a9565b9850985050505050505093509350939050565b600a5460ff161561236d5760405162461bcd60e51b815260040161099d906156d3565b600a805460ff191660011790556001600160a01b0381166000908152600d602052604090205460ff166123d25760405162461bcd60e51b815260206004820152600d60248201526c11549497d393d517d093d55391609a1b604482015260640161099d565b6001600160a01b0381166000818152600d6020526040908190206003015490516370a0823160e01b81523060048201529091906370a0823190602401602060405180830381865afa15801561242b573d6000803e3d6000fd5b505050506040513d601f19601f8201168201806040525081019061244f9190615862565b6001600160a01b0383166000818152600d6020908152604091829020600301849055815192835282018490528101919091527f9facca02b471d2776031537a8c9e281dfe5120035ede107bd328b165ffd973389060600160405180910390a15050600a805460ff19169055565b600a5460009060ff16156124e25760405162461bcd60e51b815260040161099d906156d3565b50600e5490565b610a73670de0b6b3a7640000606461570e565b600a5460009060ff16156125225760405162461bcd60e51b815260040161099d906156d3565b61252b82613ca9565b506001600160a01b0381166000908152600d60205260409020600201545b919050565b6125616002670de0b6b3a7640000615795565b610a739060016157a9565b6001600160a01b0382166000908152600d602090815260408083208151608081018352815460ff16151581526001820154938101939093526002810154918301919091526003015460608201819052600954611938919085614a55565b60006125d63384846141f0565b50600192915050565b60006125e96127d2565b905060005b8151811015611dc35760006005600084848151811061260f5761260f61584c565b60200260200101516001600160a01b03166001600160a01b031681526020019081526020016000205490506000600560008585815181106126525761265261584c565b60200260200101516001600160a01b03166001600160a01b03168152602001908152602001600020819055506000600260009054906101000a90046001600160a01b03166001600160a01b0316631a81876d6040518163ffffffff1660e01b8152600401602060405180830381865afa1580156126d3573d6000803e3d6000fd5b505050506040513d601f19601f820116820180604052508101906126f79190615896565b90507fed2b0288692cfc6d01c94a67a53721792f59c3d1388221f8aa4f66c8d2808dde338286868151811061272e5761272e61584c565b60200260200101518560405161276c94939291906001600160a01b039485168152928416602084015292166040820152606081019190915260800190565b60405180910390a161278b8183868681518110611d9057611d9061584c565b505080806127989061587b565b9150506125ee565b610a73600a670de0b6b3a7640000615795565b60016127c8670de0b6b3a7640000600261570e565b610a7391906158b3565b600a5460609060ff16156127f85760405162461bcd60e51b815260040161099d906156d3565b600b54600160a01b900460ff166128215760405162461bcd60e51b815260040161099d9061572d565b600c80548060200260200160405190810160405280929190818152602001828054801561287757602002820191906000526020600020905b81546001600160a01b03168152600190910190602001808311612859575b5050505050905090565b606080600061288e6127d2565b90506000815167ffffffffffffffff8111156128ac576128ac615513565b6040519080825280602002602001820160405280156128d5578160200160208202803683370190505b5090506000825167ffffffffffffffff8111156128f4576128f4615513565b60405190808252806020026020018201604052801561291d578160200160208202803683370190505b50905060005b83518110156129e65783818151811061293e5761293e61584c565b60200260200101518382815181106129585761295861584c565b60200260200101906001600160a01b031690816001600160a01b0316815250506005600085838151811061298e5761298e61584c565b60200260200101516001600160a01b03166001600160a01b03168152602001908152602001600020548282815181106129c9576129c961584c565b6020908102919091010152806129de8161587b565b915050612923565b509094909350915050565b600a54600090819060ff1615612a195760405162461bcd60e51b815260040161099d906156d3565b600a805460ff19166001179055600b54600160a01b900460ff16612a4f5760405162461bcd60e51b815260040161099d9061572d565b612a5f60408501602086016154dd565b6001600160a01b0316612a7560208601866154dd565b6001600160a01b03161415612ac55760405162461bcd60e51b815260206004820152601660248201527521b0b73737ba1039bbb0b81039b0b6b2903a37b5b2b760511b604482015260640161099d565b612ae48460005b602002016020810190612adf91906154dd565b613ca9565b612aef846001612acc565b6000600d81612b0160208801886154dd565b6001600160a01b03168152602081019190915260400160009081209150600d81876001602002016020810190612b3791906154dd565b6001600160a01b031681526020810191909152604001600020905060608501351580612b7a5750612b72612710670de0b6b3a7640000615795565b606086013510155b612bbf5760405162461bcd60e51b8152602060048201526016602482015275436f6e73756d655377617046656520746f6f206c6f7760501b604482015260640161099d565b612bd2600a670de0b6b3a7640000615795565b60608601351115612c1f5760405162461bcd60e51b8152602060048201526017602482015276086dedce6eadacaa6eec2e08ccaca40e8dede40d0d2ced604b1b604482015260640161099d565b6003820154612c3b90610da96002670de0b6b3a7640000615795565b85351115612c7e5760405162461bcd60e51b815260206004820152601060248201526f4552525f4d41585f494e5f524154494f60801b604482015260640161099d565b6000612cb483600301548460020154846003015485600201548a600360048110612caa57612caa61584c565b6020020135613d04565b90506040860135811115612d005760405162461bcd60e51b81526020600482015260136024820152724552525f4241445f4c494d49545f505249434560681b604482015260640161099d565b600080604051806080016040528086600301548152602001866002015481526020018560030154815260200185600201548152509050612d616040518060800160405280600081526020016000815260200160008152602001600081525090565b612d71828a3560608c01356121b2565b91995093509050612dc0600560008c815b602002016020810190612d9591906154dd565b6001600160a01b03166001600160a01b0316815260200190815260200160002054826020015161480b565b60056000612dd160208e018e6154dd565b6001600160a01b03166001600160a01b0316815260200190815260200160002081905550612e4d600660008c600060038110612e0f57612e0f61584c565b602002016020810190612e2291906154dd565b6001600160a01b03166001600160a01b0316815260200190815260200160002054826040015161480b565b60066000612e5e60208e018e6154dd565b6001600160a01b03166001600160a01b03168152602001908152602001600020819055507f53a9dc73d01196a9c660d761bc5ec77b945340a34b5b52e510760af2dab1c0f181600001518260200151836040015184606001518e600060038110612eca57612eca61584c565b602002016020810190612edd91906154dd565b6040805195865260208601949094529284019190915260608301526001600160a01b0316608082015260a00160405180910390a16020890135881015612f355760405162461bcd60e51b815260040161099d90615758565b612f4386600301548461480b565b8660030181905550612f5985600301548961416c565b8560030181905550612f8b86600301548760020154876003015488600201548d600360048110612caa57612caa61584c565b965083871015612fad5760405162461bcd60e51b815260040161099d906158ca565b6040890135871115612ff35760405162461bcd60e51b815260206004820152600f60248201526e4552525f4c494d49545f505249434560881b604482015260640161099d565b612ffe893589614564565b84111561301d5760405162461bcd60e51b815260040161099d906158ca565b61302d60408b0160208c016154dd565b6001600160a01b031661304360208c018c6154dd565b60038089015490880154604080518e358152602081018e905242918101919091526060810192909252608082015260a081018a90526001600160a01b03919091169033907fbdafe88494b31fc7436fe7992b0f377e874287e841e62eed1ad77e84f3c5b1719060c00160405180910390a46130cc6130c460208c018c6154dd565b338b3561490d565b60006130f18a35611aae81610da9670de0b6b3a76400008f60035b602002013561416c565b905060608a01351561318c576131358b60025b60200201602081019061311791906154dd565b8261312560208f018f6154dd565b6001600160a01b031691906147a8565b7f6d11837f46cc09b011cf4aae09fcade046c020aac088090ae4f77ff67b70797261316660608d0160408e016154dd565b61317360208e018e6154dd565b8360405161318393929190615828565b60405180910390a15b6131a661319f60408d0160208e016154dd565b338b6141dc565b50505050505050600a805460ff1916905590939092509050565b60608060006131cd6127d2565b90506000815167ffffffffffffffff8111156131eb576131eb615513565b604051908082528060200260200182016040528015613214578160200160208202803683370190505b5090506000825167ffffffffffffffff81111561323357613233615513565b60405190808252806020026020018201604052801561325c578160200160208202803683370190505b50905060005b83518110156129e65783818151811061327d5761327d61584c565b60200260200101518382815181106132975761329761584c565b60200260200101906001600160a01b031690816001600160a01b031681525050600660008583815181106132cd576132cd61584c565b60200260200101516001600160a01b03166001600160a01b03168152602001908152602001600020548282815181106133085761330861584c565b60209081029190910101528061331d8161587b565b915050613262565b600a54600090819060ff161561334d5760405162461bcd60e51b815260040161099d906156d3565b600a805460ff19166001179055600b54600160a01b900460ff166133835760405162461bcd60e51b815260040161099d9061572d565b61339360408501602086016154dd565b6001600160a01b03166133a960208601866154dd565b6001600160a01b031614156133f95760405162461bcd60e51b815260206004820152601660248201527521b0b73737ba1039bbb0b81039b0b6b2903a37b5b2b760511b604482015260640161099d565b606083013515806134215750613419612710670de0b6b3a7640000615795565b606084013510155b6134665760405162461bcd60e51b8152602060048201526016602482015275436f6e73756d655377617046656520746f6f206c6f7760501b604482015260640161099d565b613479600a670de0b6b3a7640000615795565b606084013511156134c65760405162461bcd60e51b8152602060048201526017602482015276086dedce6eadacaa6eec2e08ccaca40e8dede40d0d2ced604b1b604482015260640161099d565b6134d1846000612acc565b6134dc846001612acc565b6000600d816134ee60208801886154dd565b6001600160a01b03168152602081019190915260400160009081209150600d8187600160200201602081019061352491906154dd565b6001600160a01b03166001600160a01b03168152602001908152602001600020905061356381600301546002670de0b6b3a7640000610d9e9190615795565b602086013511156135aa5760405162461bcd60e51b81526020600482015260116024820152704552525f4d41585f4f55545f524154494f60781b604482015260640161099d565b60006135d683600301548460020154846003015485600201548a600360048110612caa57612caa61584c565b905060408601358111156136225760405162461bcd60e51b81526020600482015260136024820152724552525f4241445f4c494d49545f505249434560681b604482015260640161099d565b6000806040518060800160405280866003015481526020018660020154815260200185600301548152602001856002015481525090506136836040518060800160405280600081526020016000815260200160008152602001600081525090565b6136968260208b013560608c013561199d565b919950935090506136ab600560008c81612d82565b600560006136bc60208e018e6154dd565b6001600160a01b03166001600160a01b03168152602001908152602001600020819055506136fa600660008c600060038110612e0f57612e0f61584c565b6006600061370b60208e018e6154dd565b6001600160a01b03166001600160a01b03168152602001908152602001600020819055507f53a9dc73d01196a9c660d761bc5ec77b945340a34b5b52e510760af2dab1c0f181600001518260200151836040015184606001518e6000600381106137775761377761584c565b60200201602081019061378a91906154dd565b6040805195865260208601949094529284019190915260608301526001600160a01b0316608082015260a00160405180910390a188358811156137fe5760405162461bcd60e51b815260206004820152600c60248201526b22a9292fa624a6a4aa2fa4a760a11b604482015260640161099d565b61380c86600301548461480b565b600380880191909155850154613824908a60016130e7565b856003018190555061385686600301548760020154876003015488600201548d600360048110612caa57612caa61584c565b9650838710156138785760405162461bcd60e51b815260040161099d906158ca565b60408901358711156138be5760405162461bcd60e51b815260206004820152600f60248201526e4552525f4c494d49545f505249434560881b604482015260640161099d565b6138cc8860208b0135614564565b8411156138eb5760405162461bcd60e51b815260040161099d906158ca565b6138fb60408b0160208c016154dd565b6001600160a01b031661391160208c018c6154dd565b6001600160a01b0316337fbdafe88494b31fc7436fe7992b0f377e874287e841e62eed1ad77e84f3c5b1718b8d60016020020135428c600301548c600301548f60405161398696959493929190958652602086019490945260408501929092526060840152608083015260a082015260c00190565b60405180910390a46139a561399e60208c018c6154dd565b338a61490d565b60006139c389611aae81610da9670de0b6b3a76400008f60036130e7565b905060608a013515613a31576139da8b6002613104565b7f6d11837f46cc09b011cf4aae09fcade046c020aac088090ae4f77ff67b707972613a0b60608d0160408e016154dd565b613a1860208e018e6154dd565b83604051613a2893929190615828565b60405180910390a15b6131a6613a4460408d0160208e016154dd565b3360208d01356141dc565b6000806000806000613a6089613ca9565b613a6988613ca9565b604080516080810182526001600160a01b03808c166000908152600d6020818152858320600380820154875260029182015483880152948f16808552838352878520958601549787019790975295835252920154606082015290613aee6040518060800160405280600081526020016000815260200160008152602001600081525090565b6117b3838b8b61199d565b600a5460609060ff16156128215760405162461bcd60e51b815260040161099d906156d3565b3360009081526008602090815260408083206001600160a01b0386168452909152812054613b4d908361480b565b3360008181526008602090815260408083206001600160a01b038916808552908352928190208590555193845290926000805160206159448339815191529101610a4e565b610a736002670de0b6b3a7640000615795565b600a5460009060ff1615613bcb5760405162461bcd60e51b815260040161099d906156d3565b613bd482613ca9565b6001600160a01b0382166000908152600d6020526040902060020154600e546109fe908290614564565b600a5460009060ff1615613c245760405162461bcd60e51b815260040161099d906156d3565b613c2d82613ca9565b506001600160a01b03166000908152600d602052604090206003015490565b6001600160a01b0382166000908152600d602090815260408083208151608081018352815460ff1615158152600182015493810193909352600281015491830191909152600301546060820181905260095461193891908561485d565b6001600160a01b0381166000908152600d602052604090205460ff16613d015760405162461bcd60e51b815260206004820152600d60248201526c11549497d393d517d093d55391609a1b604482015260640161099d565b50565b600080613d118787614564565b90506000613d1f8686614564565b90506000613d2d8383614564565b90506000613d76670de0b6b3a7640000611a8b670de0b6b3a764000089600054613d5561168f565b600154613d6291906157a9565b613d6c91906157a9565b611aae91906157a9565b9050613d828282614087565b9a9950505050505050505050565b600a5461010090046001600160a01b03163314613de45760405162461bcd60e51b815260206004820152601260248201527122a9292fa727aa2fa1a7a72a2927a62622a960711b604482015260640161099d565b6001600160a01b0383166000908152600d602052604090205460ff1615613e3c5760405162461bcd60e51b815260206004820152600c60248201526b11549497d254d7d093d5539160a21b604482015260640161099d565b600b54600160a01b900460ff1615613e895760405162461bcd60e51b815260206004820152601060248201526f11549497d254d7d1925390531256915160821b604482015260640161099d565b600c54600211613ecc5760405162461bcd60e51b815260206004820152600e60248201526d4552525f4d41585f544f4b454e5360901b604482015260640161099d565b604080516080810182526001808252600c805460208085019182526000858701818152606087018281526001600160a01b038c16808452600d9094529782209651875460ff1916901515178755925186860155915160028601559451600390940193909355805491820181559091527fdf6966c971051c3d54ec59162606531493a51404a002842f56009d7e5cf4a8c70180546001600160a01b0319169091179055613f79838383614af2565b505050565b600b805460ff60a01b1916600160a01b179055600a805460ff60a81b1916600160a81b179055613fbf613fba670de0b6b3a7640000606461570e565b6148fa565b613fdb33613fd6670de0b6b3a7640000606461570e565b614903565b565b600060018210156140305760405162461bcd60e51b815260206004820152601a60248201527f4552525f504f4f4c5f414d4f554e545f494e5f544f4f5f4c4f57000000000000604482015260640161099d565b61403b82600261570e565b91506000614049848461416c565b905060006140578286614564565b9050600061406d670de0b6b3a76400008361416c565b9050600061407b8289614087565b98975050505050505050565b600080614094838561570e565b90508315806140ab5750826140a98583615795565b145b6140ea5760405162461bcd60e51b815260206004820152601060248201526f4552525f4d554c5f4f564552464c4f5760801b604482015260640161099d565b60006140ff6002670de0b6b3a7640000615795565b61410990836157a9565b90508181101561414e5760405162461bcd60e51b815260206004820152601060248201526f4552525f4d554c5f4f564552464c4f5760801b604482015260640161099d565b6000614162670de0b6b3a764000083615795565b9695505050505050565b600080600061417b8585614d11565b9150915080156141c15760405162461bcd60e51b81526020600482015260116024820152704552525f5355425f554e444552464c4f5760781b604482015260640161099d565b509392505050565b611dc38282614d48565b613d0181614d53565b613f796001600160a01b03841683836147a8565b6001600160a01b03831660009081526007602052604090205481111561424f5760405162461bcd60e51b815260206004820152601460248201527311549497d25394d551919250d251539517d0905360621b604482015260640161099d565b6001600160a01b038316600090815260076020526040902054614272908261416c565b6001600160a01b0380851660009081526007602052604080822093909355908416815220546142a1908261480b565b6001600160a01b0380841660008181526007602052604090819020939093559151908516907fddf252ad1be2c89b69c2b068fc378daa952ba7f163c4a11628f55a4df523b3ef906142f59085815260200190565b60405180910390a3505050565b600a8054610100600160a81b0319166101006001600160a01b038a81169190910291909117909155600280546001600160a01b0319169188169190911790558451600090869082906143565761435661584c565b602090810291909101810151600181905560408051338152928301919091527fbca0d601c32979eebac4e8cd06375b6e45d39af80fc06a33f366425b450dfb69910160405180910390a1856001815181106143b3576143b361584c565b6020908102919091018101516000819055600a8054881515600160a81b0260ff60a81b19909116179055600b80548651600380546001600160a01b039283166001600160a01b0319918216179091559488015160048054918316918716919091179055865116881515600160a01b02949094166001600160a81b031990911617831790556040517f5e3e722dbd3b6b8071b78568ac80cd0e8ff92e4fb3024e755d504d8f7c2f6f0992614467923392615828565b60405180910390a15050600f8054600a54600160a01b6101009091046001600160a01b03166001600160a81b03199092169190911781179182905560ff9104169695505050505050565b6000806144c683670de0b6b3a7640000614087565b905060006144d4868361480b565b905060006144e28288614564565b905060006144f882670de0b6b3a764000061416c565b905060006145068289614087565b905060028110156145595760405162461bcd60e51b815260206004820152601b60248201527f4552525f544f4b454e5f414d4f554e545f494e5f544f4f5f4c4f570000000000604482015260640161099d565b611682600282615795565b6000816145a25760405162461bcd60e51b815260206004820152600c60248201526b4552525f4449565f5a45524f60a01b604482015260640161099d565b60006145b6670de0b6b3a76400008561570e565b90508315806145d55750670de0b6b3a76400006145d38583615795565b145b6146145760405162461bcd60e51b815260206004820152601060248201526f11549497d1125597d25395115493905360821b604482015260640161099d565b6000614621600285615795565b61462b90836157a9565b9050818110156146705760405162461bcd60e51b815260206004820152601060248201526f11549497d1125597d25395115493905360821b604482015260640161099d565b60006141628583615795565b600060018310156146c75760405162461bcd60e51b81526020600482015260156024820152744552525f42504f575f424153455f544f4f5f4c4f5760581b604482015260640161099d565b60016146dc670de0b6b3a7640000600261570e565b6146e691906158b3565b83111561472e5760405162461bcd60e51b815260206004820152601660248201527508aa4a4be84a09eaebe8482a68abea89e9ebe90928e960531b604482015260640161099d565b600061473983614e1f565b90506000614747848361416c565b9050600061475d8661475885614e3d565b614e51565b90508161476e579250610a5a915050565b6000614791878461478c6402540be400670de0b6b3a7640000615795565b614ec5565b905061479d8282614087565b979650505050505050565b6040516001600160a01b038316602482015260448101829052613f7990849063a9059cbb60e01b906064015b60408051601f198184030181529190526020810180516001600160e01b03166001600160e01b031990931692909217909152614fb5565b60008061481883856157a9565b9050838110156109fe5760405162461bcd60e51b815260206004820152601060248201526f4552525f4144445f4f564552464c4f5760801b604482015260640161099d565b60008061486a848461480b565b905060006148788286614564565b9050600061488e82670de0b6b3a764000061416c565b9050600061489c8289614087565b905060018110156148ef5760405162461bcd60e51b815260206004820152601b60248201527f4552525f504f4f4c5f414d4f554e545f4f55545f544f4f5f4c4f570000000000604482015260640161099d565b61407b81600261570e565b613d0181615087565b611dc382826150f6565b6040516370a0823160e01b81523060048201526000906001600160a01b038516906370a0823190602401602060405180830381865afa158015614954573d6000803e3d6000fd5b505050506040513d601f19601f820116820180604052508101906149789190615862565b905061498f6001600160a01b038516843085615101565b61499982826157a9565b6040516370a0823160e01b81523060048201526001600160a01b038616906370a0823190602401602060405180830381865afa1580156149dd573d6000803e3d6000fd5b505050506040513d601f19601f82011682018060405250810190614a019190615862565b1015614a4f5760405162461bcd60e51b815260206004820152601a60248201527f5472616e7366657220616d6f756e7420697320746f6f206c6f77000000000000604482015260640161099d565b50505050565b600080614a62858461416c565b90506000614a708287614564565b90506000614a86670de0b6b3a76400008361416c565b90506000614a948288614087565b90506002811015614ae75760405162461bcd60e51b815260206004820152601c60248201527f4552525f544f4b454e5f414d4f554e545f4f55545f544f4f5f4c4f5700000000604482015260640161099d565b61407b600282615795565b670de0b6b3a7640000811015614b3b5760405162461bcd60e51b815260206004820152600e60248201526d11549497d3525397d5d15251d21560921b604482015260640161099d565b614b4e670de0b6b3a7640000603261570e565b811115614b8e5760405162461bcd60e51b815260206004820152600e60248201526d11549497d3505617d5d15251d21560921b604482015260640161099d565b614ba564e8d4a51000670de0b6b3a7640000615795565b821015614be65760405162461bcd60e51b815260206004820152600f60248201526e4552525f4d494e5f42414c414e434560881b604482015260640161099d565b6001600160a01b0383166000908152600d602052604090206002015480821115614c8257614c1f600e54614c1a848461416c565b61480b565b600e55614c35670de0b6b3a7640000603261570e565b600e541115614c7d5760405162461bcd60e51b815260206004820152601460248201527311549497d3505617d513d5105317d5d15251d21560621b604482015260640161099d565b614c9e565b80821015614c9e57614c9a600e54611aae838561416c565b600e555b6001600160a01b0384166000908152600d602052604090206002810183905560030180549084905580841115614ce757614ce28533614cdd878561416c565b61490d565b614d0a565b80841015614d0a576000614cfb828661416c565b9050614d088633836141dc565b505b5050505050565b600080828410614d3057614d2583856158b3565b600091509150614d41565b614d3a84846158b3565b6001915091505b9250929050565b611dc38230836141f0565b30600090815260076020526040902054811115614da95760405162461bcd60e51b815260206004820152601460248201527311549497d25394d551919250d251539517d0905360621b604482015260640161099d565b30600090815260076020526040902054614dc3908261416c565b30600090815260076020526040902055600954614de0908261416c565b60095560405181815260009030907fddf252ad1be2c89b69c2b068fc378daa952ba7f163c4a11628f55a4df523b3ef906020015b60405180910390a350565b6000670de0b6b3a7640000614e3383614e3d565b610a5a919061570e565b6000610a5a670de0b6b3a764000083615795565b60008281614e606002856158f3565b614e7257670de0b6b3a7640000614e74565b815b9050614e81600285615795565b93505b831561193857614e948283614087565b9150614ea16002856158f3565b15614eb357614eb08183614087565b90505b614ebe600285615795565b9350614e84565b6000828180614edc87670de0b6b3a7640000614d11565b9092509050670de0b6b3a764000080600060015b888410614fa6576000614f0b670de0b6b3a76400008361570e565b9050600080614f2b8a614f2685670de0b6b3a764000061416c565b614d11565b91509150614f3d87610da9848c614087565b9650614f498784614564565b965086614f5857505050614fa6565b8715614f62579315935b8015614f6c579315935b8415614f8357614f7c868861416c565b9550614f90565b614f8d868861480b565b95505b5050508080614f9e9061587b565b915050614ef0565b50909998505050505050505050565b600061500a826040518060400160405280602081526020017f5361666545524332303a206c6f772d6c6576656c2063616c6c206661696c6564815250856001600160a01b03166151229092919063ffffffff16565b805190915015613f79578080602001905181019061502891906157c1565b613f795760405162461bcd60e51b815260206004820152602a60248201527f5361666545524332303a204552433230206f7065726174696f6e20646964206e6044820152691bdd081cdd58d8d9595960b21b606482015260840161099d565b306000908152600760205260409020546150a1908261480b565b306000908152600760205260409020556009546150be908261480b565b60095560405181815230906000907fddf252ad1be2c89b69c2b068fc378daa952ba7f163c4a11628f55a4df523b3ef90602001614e14565b611dc33083836141f0565b614a4f846323b872dd60e01b8585856040516024016147d493929190615828565b6060611938848460008585843b61517b5760405162461bcd60e51b815260206004820152601d60248201527f416464726573733a2063616c6c20746f206e6f6e2d636f6e7472616374000000604482015260640161099d565b600080866001600160a01b031685876040516151979190615907565b60006040518083038185875af1925050503d80600081146151d4576040519150601f19603f3d011682016040523d82523d6000602084013e6151d9565b606091505b509150915061479d828286606083156151f35750816109fe565b8251156152035782518084602001fd5b8160405162461bcd60e51b815260040161099d9190615249565b60005b83811015615238578181015183820152602001615220565b83811115614a4f5750506000910152565b602081526000825180602084015261526881604085016020870161521d565b601f01601f19169190910160400192915050565b6001600160a01b0381168114613d0157600080fd5b6000806000606084860312156152a657600080fd5b83356152b18161527c565b925060208401356152c18161527c565b929592945050506040919091013590565b600080604083850312156152e557600080fd5b82356152f08161527c565b946020939093013593505050565b60008060008060008060c0878903121561531757600080fd5b86356153228161527c565b9550602087013594506040870135935060608701356153408161527c565b9598949750929560808101359460a0909101359350915050565b6000806040838503121561536d57600080fd5b50508035926020909101359150565b8015158114613d0157600080fd5b80356125498161537c565b8060408101831015610a5a57600080fd5b8060208101831015610a5a57600080fd5b600080600080600080600080610100898b0312156153d457600080fd5b88356153df8161527c565b975060208901356153ef8161527c565b9650604089013567ffffffffffffffff8082111561540c57600080fd5b818b0191508b601f83011261542057600080fd5b81358181111561542f57600080fd5b8c60208260051b850101111561544457600080fd5b60208301985080975050505061545c60608a0161538a565b935061546a60808a0161538a565b92506154798a60a08b01615395565b91506154888a60e08b016153a6565b90509295985092959890939650565b600080600080608085870312156154ad57600080fd5b84356154b88161527c565b935060208501356154c88161527c565b93969395505050506040820135916060013590565b6000602082840312156154ef57600080fd5b81356109fe8161527c565b60006020828403121561550c57600080fd5b5035919050565b634e487b7160e01b600052604160045260246000fd5b600080600060c0848603121561553e57600080fd5b84601f85011261554d57600080fd5b6040516080810181811067ffffffffffffffff8211171561557057615570615513565b60405280608086018781111561558557600080fd5b865b8181101561559f578035835260209283019201615587565b509197913596505060a094909401359392505050565b600081518084526020808501945080840160005b838110156155ee5781516001600160a01b0316875295820195908201906001016155c9565b509495945050505050565b6020815260006109fe60208301846155b5565b60408152600061561f60408301856155b5565b82810360208481019190915284518083528582019282019060005b818110156156565784518352938301939183019160010161563a565b5090979650505050505050565b60008060e0838503121561567657600080fd5b606083018481111561568757600080fd5b8392508460e08501111561569a57600080fd5b809150509250929050565b600080604083850312156156b857600080fd5b82356156c38161527c565b9150602083013561569a8161527c565b6020808252600b908201526a4552525f5245454e54525960a81b604082015260600190565b634e487b7160e01b600052601160045260246000fd5b6000816000190483118215151615615728576157286156f8565b500290565b60208082526011908201527011549497d393d517d19253905312569151607a1b604082015260600190565b6020808252600d908201526c11549497d31253525517d3d555609a1b604082015260600190565b634e487b7160e01b600052601260045260246000fd5b6000826157a4576157a461577f565b500490565b600082198211156157bc576157bc6156f8565b500190565b6000602082840312156157d357600080fd5b81516109fe8161537c565b6020808252600b908201526a4552525f4d494e5f46454560a81b604082015260600190565b6020808252600b908201526a4552525f4d41585f46454560a81b604082015260600190565b6001600160a01b039384168152919092166020820152604081019190915260600190565b634e487b7160e01b600052603260045260246000fd5b60006020828403121561587457600080fd5b5051919050565b600060001982141561588f5761588f6156f8565b5060010190565b6000602082840312156158a857600080fd5b81516109fe8161527c565b6000828210156158c5576158c56156f8565b500390565b6020808252600f908201526e08aa4a4be9a82a890be82a0a0a49eb608b1b604082015260600190565b6000826159025761590261577f565b500690565b6000825161591981846020870161521d565b919091019291505056fe15a8ca63e37b2cff1677df2b6b82d36fcf8a524228bd7a4b4d02d107c28c1e8a8c5be1e5ebec7d5bd14f71427d1e84f3dd0314c0f7b2291e5b200ac8c7c3b925a264697066735822122078d73ada3f9b3addb83bb1b5866b60360818c358148e2f184c98c7345c65a76064736f6c634300080c0033",
  "linkReferences": {},
  "deployedLinkReferences": {}
}