{
  "_format": "hh-sol-artifact-1",
  "contractName": "BPool",
  "sourceName": "contracts/pools/balancer/BPool.sol",
  "abi": [
    {
      "anonymous": false,
      "inputs": [
        {
          "indexed": true,
          "internalType": "address",
          "name": "src",
          "type": "address"
        },
        {
          "indexed": true,
          "internalType": "address",
          "name": "dst",
          "type": "address"
        },
        {
          "indexed": false,
          "internalType": "uint256",
          "name": "amt",
          "type": "uint256"
        }
      ],
      "name": "Approval",
      "type": "event"
    },
    {
      "anonymous": false,
      "inputs": [
        {
          "indexed": false,
          "internalType": "address",
          "name": "to",
          "type": "address"
        },
        {
          "indexed": false,
          "internalType": "address",
          "name": "token",
          "type": "address"
        },
        {
          "indexed": false,
          "internalType": "uint256",
          "name": "amount",
          "type": "uint256"
        }
      ],
      "name": "ConsumeMarketFee",
      "type": "event"
    },
    {
      "anonymous": false,
      "inputs": [
        {
          "indexed": false,
          "internalType": "address",
          "name": "token",
          "type": "address"
        },
        {
          "indexed": false,
          "internalType": "uint256",
          "name": "oldBalance",
          "type": "uint256"
        },
        {
          "indexed": false,
          "internalType": "uint256",
          "name": "newBalance",
          "type": "uint256"
        }
      ],
      "name": "Gulped",
      "type": "event"
    },
    {
      "anonymous": false,
      "inputs": [
        {
          "indexed": false,
          "internalType": "uint256",
          "name": "bptAmount",
          "type": "uint256"
        }
      ],
      "name": "LOG_BPT",
      "type": "event"
    },
    {
      "anonymous": false,
      "inputs": [
        {
          "indexed": false,
          "internalType": "uint256",
          "name": "bptAmount",
          "type": "uint256"
        }
      ],
      "name": "LOG_BPT_SS",
      "type": "event"
    },
    {
      "anonymous": false,
      "inputs": [
        {
          "indexed": true,
          "internalType": "bytes4",
          "name": "sig",
          "type": "bytes4"
        },
        {
          "indexed": true,
          "internalType": "address",
          "name": "caller",
          "type": "address"
        },
        {
          "indexed": false,
          "internalType": "uint256",
          "name": "timestamp",
          "type": "uint256"
        },
        {
          "indexed": false,
          "internalType": "bytes",
          "name": "data",
          "type": "bytes"
        }
      ],
      "name": "LOG_CALL",
      "type": "event"
    },
    {
      "anonymous": false,
      "inputs": [
        {
          "indexed": true,
          "internalType": "address",
          "name": "caller",
          "type": "address"
        },
        {
          "indexed": true,
          "internalType": "address",
          "name": "tokenOut",
          "type": "address"
        },
        {
          "indexed": false,
          "internalType": "uint256",
          "name": "tokenAmountOut",
          "type": "uint256"
        },
        {
          "indexed": false,
          "internalType": "uint256",
          "name": "timestamp",
          "type": "uint256"
        }
      ],
      "name": "LOG_EXIT",
      "type": "event"
    },
    {
      "anonymous": false,
      "inputs": [
        {
          "indexed": true,
          "internalType": "address",
          "name": "caller",
          "type": "address"
        },
        {
          "indexed": true,
          "internalType": "address",
          "name": "tokenIn",
          "type": "address"
        },
        {
          "indexed": false,
          "internalType": "uint256",
          "name": "tokenAmountIn",
          "type": "uint256"
        },
        {
          "indexed": false,
          "internalType": "uint256",
          "name": "timestamp",
          "type": "uint256"
        }
      ],
      "name": "LOG_JOIN",
      "type": "event"
    },
    {
      "anonymous": false,
      "inputs": [
        {
          "indexed": true,
          "internalType": "address",
          "name": "caller",
          "type": "address"
        },
        {
          "indexed": true,
          "internalType": "address",
          "name": "baseToken",
          "type": "address"
        },
        {
          "indexed": false,
          "internalType": "uint256",
          "name": "baseTokenAmountIn",
          "type": "uint256"
        },
        {
          "indexed": false,
          "internalType": "uint256",
          "name": "baseTokenWeight",
          "type": "uint256"
        },
        {
          "indexed": true,
          "internalType": "address",
          "name": "datatoken",
          "type": "address"
        },
        {
          "indexed": false,
          "internalType": "uint256",
          "name": "datatokenAmountIn",
          "type": "uint256"
        },
        {
          "indexed": false,
          "internalType": "uint256",
          "name": "datatokenWeight",
          "type": "uint256"
        }
      ],
      "name": "LOG_SETUP",
      "type": "event"
    },
    {
      "anonymous": false,
      "inputs": [
        {
          "indexed": true,
          "internalType": "address",
          "name": "caller",
          "type": "address"
        },
        {
          "indexed": true,
          "internalType": "address",
          "name": "tokenIn",
          "type": "address"
        },
        {
          "indexed": true,
          "internalType": "address",
          "name": "tokenOut",
          "type": "address"
        },
        {
          "indexed": false,
          "internalType": "uint256",
          "name": "tokenAmountIn",
          "type": "uint256"
        },
        {
          "indexed": false,
          "internalType": "uint256",
          "name": "tokenAmountOut",
          "type": "uint256"
        },
        {
          "indexed": false,
          "internalType": "uint256",
          "name": "timestamp",
          "type": "uint256"
        },
        {
          "indexed": false,
          "internalType": "uint256",
          "name": "inBalance",
          "type": "uint256"
        },
        {
          "indexed": false,
          "internalType": "uint256",
          "name": "outBalance",
          "type": "uint256"
        },
        {
          "indexed": false,
          "internalType": "uint256",
          "name": "newSpotPrice",
          "type": "uint256"
        }
      ],
      "name": "LOG_SWAP",
      "type": "event"
    },
    {
      "anonymous": false,
      "inputs": [
        {
          "indexed": false,
          "internalType": "address",
          "name": "caller",
          "type": "address"
        },
        {
          "indexed": false,
          "internalType": "address",
          "name": "OPCWallet",
          "type": "address"
        },
        {
          "indexed": false,
          "internalType": "address",
          "name": "token",
          "type": "address"
        },
        {
          "indexed": false,
          "internalType": "uint256",
          "name": "amount",
          "type": "uint256"
        }
      ],
      "name": "OPCFee",
      "type": "event"
    },
    {
      "anonymous": false,
      "inputs": [
        {
          "indexed": false,
          "internalType": "address",
          "name": "caller",
          "type": "address"
        },
        {
          "indexed": false,
          "internalType": "address",
          "name": "marketAddress",
          "type": "address"
        },
        {
          "indexed": false,
          "internalType": "address",
          "name": "token",
          "type": "address"
        },
        {
          "indexed": false,
          "internalType": "uint256",
          "name": "amount",
          "type": "uint256"
        }
      ],
      "name": "PublishMarketFee",
      "type": "event"
    },
    {
      "anonymous": false,
      "inputs": [
        {
          "indexed": false,
          "internalType": "address",
          "name": "caller",
          "type": "address"
        },
        {
          "indexed": false,
          "internalType": "address",
          "name": "newMarketCollector",
          "type": "address"
        },
        {
          "indexed": false,
          "internalType": "uint256",
          "name": "swapFee",
          "type": "uint256"
        }
      ],
      "name": "PublishMarketFeeChanged",
      "type": "event"
    },
    {
      "anonymous": false,
      "inputs": [
        {
          "indexed": false,
          "internalType": "uint256",
          "name": "LPFeeAmount",
          "type": "uint256"
        },
        {
          "indexed": false,
          "internalType": "uint256",
          "name": "oceanFeeAmount",
          "type": "uint256"
        },
        {
          "indexed": false,
          "internalType": "uint256",
          "name": "marketFeeAmount",
          "type": "uint256"
        },
        {
          "indexed": false,
          "internalType": "uint256",
          "name": "consumeMarketFeeAmount",
          "type": "uint256"
        },
        {
          "indexed": false,
          "internalType": "address",
          "name": "tokenFeeAddress",
          "type": "address"
        }
      ],
      "name": "SWAP_FEES",
      "type": "event"
    },
    {
      "anonymous": false,
      "inputs": [
        {
          "indexed": false,
          "internalType": "address",
          "name": "caller",
          "type": "address"
        },
        {
          "indexed": false,
          "internalType": "uint256",
          "name": "amount",
          "type": "uint256"
        }
      ],
      "name": "SwapFeeChanged",
      "type": "event"
    },
    {
      "anonymous": false,
      "inputs": [
        {
          "indexed": true,
          "internalType": "address",
          "name": "src",
          "type": "address"
        },
        {
          "indexed": true,
          "internalType": "address",
          "name": "dst",
          "type": "address"
        },
        {
          "indexed": false,
          "internalType": "uint256",
          "name": "amt",
          "type": "uint256"
        }
      ],
      "name": "Transfer",
      "type": "event"
    },
    {
      "inputs": [],
      "name": "BONE",
      "outputs": [
        {
          "internalType": "uint256",
          "name": "",
          "type": "uint256"
        }
      ],
      "stateMutability": "view",
      "type": "function"
    },
    {
      "inputs": [],
      "name": "BPOW_PRECISION",
      "outputs": [
        {
          "internalType": "uint256",
          "name": "",
          "type": "uint256"
        }
      ],
      "stateMutability": "view",
      "type": "function"
    },
    {
      "inputs": [],
      "name": "EXIT_FEE",
      "outputs": [
        {
          "internalType": "uint256",
          "name": "",
          "type": "uint256"
        }
      ],
      "stateMutability": "view",
      "type": "function"
    },
    {
      "inputs": [],
      "name": "INIT_POOL_SUPPLY",
      "outputs": [
        {
          "internalType": "uint256",
          "name": "",
          "type": "uint256"
        }
      ],
      "stateMutability": "view",
      "type": "function"
    },
    {
      "inputs": [],
      "name": "MAX_BOUND_TOKENS",
      "outputs": [
        {
          "internalType": "uint256",
          "name": "",
          "type": "uint256"
        }
      ],
      "stateMutability": "view",
      "type": "function"
    },
    {
      "inputs": [],
      "name": "MAX_BPOW_BASE",
      "outputs": [
        {
          "internalType": "uint256",
          "name": "",
          "type": "uint256"
        }
      ],
      "stateMutability": "view",
      "type": "function"
    },
    {
      "inputs": [],
      "name": "MAX_FEE",
      "outputs": [
        {
          "internalType": "uint256",
          "name": "",
          "type": "uint256"
        }
      ],
      "stateMutability": "view",
      "type": "function"
    },
    {
      "inputs": [],
      "name": "MAX_IN_RATIO",
      "outputs": [
        {
          "internalType": "uint256",
          "name": "",
          "type": "uint256"
        }
      ],
      "stateMutability": "view",
      "type": "function"
    },
    {
      "inputs": [],
      "name": "MAX_OUT_RATIO",
      "outputs": [
        {
          "internalType": "uint256",
          "name": "",
          "type": "uint256"
        }
      ],
      "stateMutability": "view",
      "type": "function"
    },
    {
      "inputs": [],
      "name": "MAX_TOTAL_WEIGHT",
      "outputs": [
        {
          "internalType": "uint256",
          "name": "",
          "type": "uint256"
        }
      ],
      "stateMutability": "view",
      "type": "function"
    },
    {
      "inputs": [],
      "name": "MAX_WEIGHT",
      "outputs": [
        {
          "internalType": "uint256",
          "name": "",
          "type": "uint256"
        }
      ],
      "stateMutability": "view",
      "type": "function"
    },
    {
      "inputs": [],
      "name": "MIN_BALANCE",
      "outputs": [
        {
          "internalType": "uint256",
          "name": "",
          "type": "uint256"
        }
      ],
      "stateMutability": "view",
      "type": "function"
    },
    {
      "inputs": [],
      "name": "MIN_BOUND_TOKENS",
      "outputs": [
        {
          "internalType": "uint256",
          "name": "",
          "type": "uint256"
        }
      ],
      "stateMutability": "view",
      "type": "function"
    },
    {
      "inputs": [],
      "name": "MIN_BPOW_BASE",
      "outputs": [
        {
          "internalType": "uint256",
          "name": "",
          "type": "uint256"
        }
      ],
      "stateMutability": "view",
      "type": "function"
    },
    {
      "inputs": [],
      "name": "MIN_FEE",
      "outputs": [
        {
          "internalType": "uint256",
          "name": "",
          "type": "uint256"
        }
      ],
      "stateMutability": "view",
      "type": "function"
    },
    {
      "inputs": [],
      "name": "MIN_WEIGHT",
      "outputs": [
        {
          "internalType": "uint256",
          "name": "",
          "type": "uint256"
        }
      ],
      "stateMutability": "view",
      "type": "function"
    },
    {
      "inputs": [],
      "name": "_publishMarketCollector",
      "outputs": [
        {
          "internalType": "address",
          "name": "",
          "type": "address"
        }
      ],
      "stateMutability": "view",
      "type": "function"
    },
    {
      "inputs": [],
      "name": "_swapPublishMarketFee",
      "outputs": [
        {
          "internalType": "uint256",
          "name": "",
          "type": "uint256"
        }
      ],
      "stateMutability": "view",
      "type": "function"
    },
    {
      "inputs": [
        {
          "internalType": "address",
          "name": "src",
          "type": "address"
        },
        {
          "internalType": "address",
          "name": "dst",
          "type": "address"
        }
      ],
      "name": "allowance",
      "outputs": [
        {
          "internalType": "uint256",
          "name": "",
          "type": "uint256"
        }
      ],
      "stateMutability": "view",
      "type": "function"
    },
    {
      "inputs": [
        {
          "internalType": "address",
          "name": "dst",
          "type": "address"
        },
        {
          "internalType": "uint256",
          "name": "amt",
          "type": "uint256"
        }
      ],
      "name": "approve",
      "outputs": [
        {
          "internalType": "bool",
          "name": "",
          "type": "bool"
        }
      ],
      "stateMutability": "nonpayable",
      "type": "function"
    },
    {
      "inputs": [
        {
          "internalType": "address",
          "name": "whom",
          "type": "address"
        }
      ],
      "name": "balanceOf",
      "outputs": [
        {
          "internalType": "uint256",
          "name": "",
          "type": "uint256"
        }
      ],
      "stateMutability": "view",
      "type": "function"
    },
    {
      "inputs": [
        {
          "internalType": "uint256[4]",
          "name": "data",
          "type": "uint256[4]"
        },
        {
          "internalType": "uint256",
          "name": "tokenAmountOut",
          "type": "uint256"
        },
        {
          "internalType": "uint256",
          "name": "_consumeMarketSwapFee",
          "type": "uint256"
        }
      ],
      "name": "calcInGivenOut",
      "outputs": [
        {
          "internalType": "uint256",
          "name": "tokenAmountIn",
          "type": "uint256"
        },
        {
          "internalType": "uint256",
          "name": "tokenAmountInBalance",
          "type": "uint256"
        },
        {
          "components": [
            {
              "internalType": "uint256",
              "name": "LPFee",
              "type": "uint256"
            },
            {
              "internalType": "uint256",
              "name": "oceanFeeAmount",
              "type": "uint256"
            },
            {
              "internalType": "uint256",
              "name": "publishMarketFeeAmount",
              "type": "uint256"
            },
            {
              "internalType": "uint256",
              "name": "consumeMarketFee",
              "type": "uint256"
            }
          ],
          "internalType": "struct BMath.swapfees",
          "name": "_swapfees",
          "type": "tuple"
        }
      ],
      "stateMutability": "view",
      "type": "function"
    },
    {
      "inputs": [
        {
          "internalType": "uint256[4]",
          "name": "data",
          "type": "uint256[4]"
        },
        {
          "internalType": "uint256",
          "name": "tokenAmountIn",
          "type": "uint256"
        },
        {
          "internalType": "uint256",
          "name": "_consumeMarketSwapFee",
          "type": "uint256"
        }
      ],
      "name": "calcOutGivenIn",
      "outputs": [
        {
          "internalType": "uint256",
          "name": "tokenAmountOut",
          "type": "uint256"
        },
        {
          "internalType": "uint256",
          "name": "balanceInToAdd",
          "type": "uint256"
        },
        {
          "components": [
            {
              "internalType": "uint256",
              "name": "LPFee",
              "type": "uint256"
            },
            {
              "internalType": "uint256",
              "name": "oceanFeeAmount",
              "type": "uint256"
            },
            {
              "internalType": "uint256",
              "name": "publishMarketFeeAmount",
              "type": "uint256"
            },
            {
              "internalType": "uint256",
              "name": "consumeMarketFee",
              "type": "uint256"
            }
          ],
          "internalType": "struct BMath.swapfees",
          "name": "_swapfees",
          "type": "tuple"
        }
      ],
      "stateMutability": "view",
      "type": "function"
    },
    {
      "inputs": [
        {
          "internalType": "address",
          "name": "tokenOut",
          "type": "address"
        },
        {
          "internalType": "uint256",
          "name": "tokenAmountOut",
          "type": "uint256"
        }
      ],
      "name": "calcPoolInSingleOut",
      "outputs": [
        {
          "internalType": "uint256",
          "name": "poolAmountIn",
          "type": "uint256"
        }
      ],
      "stateMutability": "view",
      "type": "function"
    },
    {
      "inputs": [
        {
          "internalType": "address",
          "name": "tokenIn",
          "type": "address"
        },
        {
          "internalType": "uint256",
          "name": "tokenAmountIn",
          "type": "uint256"
        }
      ],
      "name": "calcPoolOutSingleIn",
      "outputs": [
        {
          "internalType": "uint256",
          "name": "poolAmountOut",
          "type": "uint256"
        }
      ],
      "stateMutability": "view",
      "type": "function"
    },
    {
      "inputs": [
        {
          "internalType": "address",
          "name": "tokenIn",
          "type": "address"
        },
        {
          "internalType": "uint256",
          "name": "poolAmountOut",
          "type": "uint256"
        }
      ],
      "name": "calcSingleInPoolOut",
      "outputs": [
        {
          "internalType": "uint256",
          "name": "tokenAmountIn",
          "type": "uint256"
        }
      ],
      "stateMutability": "view",
      "type": "function"
    },
    {
      "inputs": [
        {
          "internalType": "address",
          "name": "tokenOut",
          "type": "address"
        },
        {
          "internalType": "uint256",
          "name": "poolAmountIn",
          "type": "uint256"
        }
      ],
      "name": "calcSingleOutPoolIn",
      "outputs": [
        {
          "internalType": "uint256",
          "name": "tokenAmountOut",
          "type": "uint256"
        }
      ],
      "stateMutability": "view",
      "type": "function"
    },
    {
      "inputs": [],
      "name": "collectMarketFee",
      "outputs": [],
      "stateMutability": "nonpayable",
      "type": "function"
    },
    {
      "inputs": [],
      "name": "collectOPC",
      "outputs": [],
      "stateMutability": "nonpayable",
      "type": "function"
    },
    {
      "inputs": [
        {
          "internalType": "address",
          "name": "",
          "type": "address"
        }
      ],
      "name": "communityFees",
      "outputs": [
        {
          "internalType": "uint256",
          "name": "",
          "type": "uint256"
        }
      ],
      "stateMutability": "view",
      "type": "function"
    },
    {
      "inputs": [],
      "name": "decimals",
      "outputs": [
        {
          "internalType": "uint8",
          "name": "",
          "type": "uint8"
        }
      ],
      "stateMutability": "view",
      "type": "function"
    },
    {
      "inputs": [
        {
          "internalType": "address",
          "name": "dst",
          "type": "address"
        },
        {
          "internalType": "uint256",
          "name": "amt",
          "type": "uint256"
        }
      ],
      "name": "decreaseApproval",
      "outputs": [
        {
          "internalType": "bool",
          "name": "",
          "type": "bool"
        }
      ],
      "stateMutability": "nonpayable",
      "type": "function"
    },
    {
      "inputs": [
        {
          "internalType": "uint256",
          "name": "poolAmountIn",
          "type": "uint256"
        },
        {
          "internalType": "uint256",
          "name": "minAmountOut",
          "type": "uint256"
        }
      ],
      "name": "exitswapPoolAmountIn",
      "outputs": [
        {
          "internalType": "uint256",
          "name": "tokenAmountOut",
          "type": "uint256"
        }
      ],
      "stateMutability": "nonpayable",
      "type": "function"
    },
    {
      "inputs": [
        {
          "internalType": "address",
          "name": "tokenIn",
          "type": "address"
        },
        {
          "internalType": "address",
          "name": "tokenOut",
          "type": "address"
        },
        {
          "internalType": "uint256",
          "name": "tokenAmountOut",
          "type": "uint256"
        },
        {
          "internalType": "uint256",
          "name": "_consumeMarketSwapFee",
          "type": "uint256"
        }
      ],
      "name": "getAmountInExactOut",
      "outputs": [
        {
          "internalType": "uint256",
          "name": "tokenAmountIn",
          "type": "uint256"
        },
        {
          "internalType": "uint256",
          "name": "lpFeeAmount",
          "type": "uint256"
        },
        {
          "internalType": "uint256",
          "name": "oceanFeeAmount",
          "type": "uint256"
        },
        {
          "internalType": "uint256",
          "name": "publishMarketSwapFeeAmount",
          "type": "uint256"
        },
        {
          "internalType": "uint256",
          "name": "consumeMarketSwapFeeAmount",
          "type": "uint256"
        }
      ],
      "stateMutability": "view",
      "type": "function"
    },
    {
      "inputs": [
        {
          "internalType": "address",
          "name": "tokenIn",
          "type": "address"
        },
        {
          "internalType": "address",
          "name": "tokenOut",
          "type": "address"
        },
        {
          "internalType": "uint256",
          "name": "tokenAmountIn",
          "type": "uint256"
        },
        {
          "internalType": "uint256",
          "name": "_consumeMarketSwapFee",
          "type": "uint256"
        }
      ],
      "name": "getAmountOutExactIn",
      "outputs": [
        {
          "internalType": "uint256",
          "name": "tokenAmountOut",
          "type": "uint256"
        },
        {
          "internalType": "uint256",
          "name": "lpFeeAmount",
          "type": "uint256"
        },
        {
          "internalType": "uint256",
          "name": "oceanFeeAmount",
          "type": "uint256"
        },
        {
          "internalType": "uint256",
          "name": "publishMarketSwapFeeAmount",
          "type": "uint256"
        },
        {
          "internalType": "uint256",
          "name": "consumeMarketSwapFeeAmount",
          "type": "uint256"
        }
      ],
      "stateMutability": "view",
      "type": "function"
    },
    {
      "inputs": [
        {
          "internalType": "address",
          "name": "token",
          "type": "address"
        }
      ],
      "name": "getBalance",
      "outputs": [
        {
          "internalType": "uint256",
          "name": "",
          "type": "uint256"
        }
      ],
      "stateMutability": "view",
      "type": "function"
    },
    {
      "inputs": [],
      "name": "getBaseTokenAddress",
      "outputs": [
        {
          "internalType": "address",
          "name": "",
          "type": "address"
        }
      ],
      "stateMutability": "view",
      "type": "function"
    },
    {
      "inputs": [],
      "name": "getController",
      "outputs": [
        {
          "internalType": "address",
          "name": "",
          "type": "address"
        }
      ],
      "stateMutability": "view",
      "type": "function"
    },
    {
      "inputs": [],
      "name": "getCurrentMarketFees",
      "outputs": [
        {
          "internalType": "address[]",
          "name": "",
          "type": "address[]"
        },
        {
          "internalType": "uint256[]",
          "name": "",
          "type": "uint256[]"
        }
      ],
      "stateMutability": "view",
      "type": "function"
    },
    {
      "inputs": [],
      "name": "getCurrentOPCFees",
      "outputs": [
        {
          "internalType": "address[]",
          "name": "",
          "type": "address[]"
        },
        {
          "internalType": "uint256[]",
          "name": "",
          "type": "uint256[]"
        }
      ],
      "stateMutability": "view",
      "type": "function"
    },
    {
      "inputs": [],
      "name": "getCurrentTokens",
      "outputs": [
        {
          "internalType": "address[]",
          "name": "tokens",
          "type": "address[]"
        }
      ],
      "stateMutability": "view",
      "type": "function"
    },
    {
      "inputs": [],
      "name": "getDatatokenAddress",
      "outputs": [
        {
          "internalType": "address",
          "name": "",
          "type": "address"
        }
      ],
      "stateMutability": "view",
      "type": "function"
    },
    {
      "inputs": [
        {
          "internalType": "address",
          "name": "token",
          "type": "address"
        }
      ],
      "name": "getDenormalizedWeight",
      "outputs": [
        {
          "internalType": "uint256",
          "name": "",
          "type": "uint256"
        }
      ],
      "stateMutability": "view",
      "type": "function"
    },
    {
      "inputs": [],
      "name": "getFinalTokens",
      "outputs": [
        {
          "internalType": "address[]",
          "name": "tokens",
          "type": "address[]"
        }
      ],
      "stateMutability": "view",
      "type": "function"
    },
    {
      "inputs": [],
      "name": "getId",
      "outputs": [
        {
          "internalType": "uint8",
          "name": "",
          "type": "uint8"
        }
      ],
      "stateMutability": "pure",
      "type": "function"
    },
    {
      "inputs": [],
      "name": "getMarketFee",
      "outputs": [
        {
          "internalType": "uint256",
          "name": "",
          "type": "uint256"
        }
      ],
      "stateMutability": "view",
      "type": "function"
    },
    {
      "inputs": [
        {
          "internalType": "address",
          "name": "token",
          "type": "address"
        }
      ],
      "name": "getNormalizedWeight",
      "outputs": [
        {
          "internalType": "uint256",
          "name": "",
          "type": "uint256"
        }
      ],
      "stateMutability": "view",
      "type": "function"
    },
    {
      "inputs": [],
      "name": "getNumTokens",
      "outputs": [
        {
          "internalType": "uint256",
          "name": "",
          "type": "uint256"
        }
      ],
      "stateMutability": "view",
      "type": "function"
    },
    {
      "inputs": [],
      "name": "getOPCFee",
      "outputs": [
        {
          "internalType": "uint256",
          "name": "",
          "type": "uint256"
        }
      ],
      "stateMutability": "view",
      "type": "function"
    },
    {
      "inputs": [
        {
          "internalType": "address",
          "name": "tokenIn",
          "type": "address"
        },
        {
          "internalType": "address",
          "name": "tokenOut",
          "type": "address"
        },
        {
          "internalType": "uint256",
          "name": "_consumeMarketSwapFee",
          "type": "uint256"
        }
      ],
      "name": "getSpotPrice",
      "outputs": [
        {
          "internalType": "uint256",
          "name": "spotPrice",
          "type": "uint256"
        }
      ],
      "stateMutability": "view",
      "type": "function"
    },
    {
      "inputs": [],
      "name": "getSwapFee",
      "outputs": [
        {
          "internalType": "uint256",
          "name": "",
          "type": "uint256"
        }
      ],
      "stateMutability": "view",
      "type": "function"
    },
    {
      "inputs": [],
      "name": "getTotalDenormalizedWeight",
      "outputs": [
        {
          "internalType": "uint256",
          "name": "",
          "type": "uint256"
        }
      ],
      "stateMutability": "view",
      "type": "function"
    },
    {
      "inputs": [
        {
          "internalType": "address",
          "name": "token",
          "type": "address"
        }
      ],
      "name": "gulp",
      "outputs": [],
      "stateMutability": "nonpayable",
      "type": "function"
    },
    {
      "inputs": [
        {
          "internalType": "address",
          "name": "dst",
          "type": "address"
        },
        {
          "internalType": "uint256",
          "name": "amt",
          "type": "uint256"
        }
      ],
      "name": "increaseApproval",
      "outputs": [
        {
          "internalType": "bool",
          "name": "",
          "type": "bool"
        }
      ],
      "stateMutability": "nonpayable",
      "type": "function"
    },
    {
      "inputs": [
        {
          "internalType": "address",
          "name": "controller",
          "type": "address"
        },
        {
          "internalType": "address",
          "name": "factory",
          "type": "address"
        },
        {
          "internalType": "uint256[]",
          "name": "swapFees",
          "type": "uint256[]"
        },
        {
          "internalType": "bool",
          "name": "publicSwap",
          "type": "bool"
        },
        {
          "internalType": "bool",
          "name": "finalized",
          "type": "bool"
        },
        {
          "internalType": "address[2]",
          "name": "tokens",
          "type": "address[2]"
        },
        {
          "internalType": "address[1]",
          "name": "feeCollectors",
          "type": "address[1]"
        }
      ],
      "name": "initialize",
      "outputs": [
        {
          "internalType": "bool",
          "name": "",
          "type": "bool"
        }
      ],
      "stateMutability": "nonpayable",
      "type": "function"
    },
    {
      "inputs": [
        {
          "internalType": "address",
          "name": "t",
          "type": "address"
        }
      ],
      "name": "isBound",
      "outputs": [
        {
          "internalType": "bool",
          "name": "",
          "type": "bool"
        }
      ],
      "stateMutability": "view",
      "type": "function"
    },
    {
      "inputs": [],
      "name": "isFinalized",
      "outputs": [
        {
          "internalType": "bool",
          "name": "",
          "type": "bool"
        }
      ],
      "stateMutability": "view",
      "type": "function"
    },
    {
      "inputs": [],
      "name": "isInitialized",
      "outputs": [
        {
          "internalType": "bool",
          "name": "",
          "type": "bool"
        }
      ],
      "stateMutability": "view",
      "type": "function"
    },
    {
      "inputs": [],
      "name": "isPublicSwap",
      "outputs": [
        {
          "internalType": "bool",
          "name": "",
          "type": "bool"
        }
      ],
      "stateMutability": "view",
      "type": "function"
    },
    {
      "inputs": [
        {
          "internalType": "uint256",
          "name": "tokenAmountIn",
          "type": "uint256"
        },
        {
          "internalType": "uint256",
          "name": "minPoolAmountOut",
          "type": "uint256"
        }
      ],
      "name": "joinswapExternAmountIn",
      "outputs": [
        {
          "internalType": "uint256",
          "name": "poolAmountOut",
          "type": "uint256"
        }
      ],
      "stateMutability": "nonpayable",
      "type": "function"
    },
    {
      "inputs": [],
      "name": "name",
      "outputs": [
        {
          "internalType": "string",
          "name": "",
          "type": "string"
        }
      ],
      "stateMutability": "view",
      "type": "function"
    },
    {
      "inputs": [
        {
          "internalType": "address",
          "name": "",
          "type": "address"
        }
      ],
      "name": "publishMarketFees",
      "outputs": [
        {
          "internalType": "uint256",
          "name": "",
          "type": "uint256"
        }
      ],
      "stateMutability": "view",
      "type": "function"
    },
    {
      "inputs": [
        {
          "internalType": "uint256",
          "name": "swapFee",
          "type": "uint256"
        }
      ],
      "name": "setSwapFee",
      "outputs": [],
      "stateMutability": "nonpayable",
      "type": "function"
    },
    {
      "inputs": [
        {
          "internalType": "address",
          "name": "datatokenAddress",
          "type": "address"
        },
        {
          "internalType": "uint256",
          "name": "datatokenAmount",
          "type": "uint256"
        },
        {
          "internalType": "uint256",
          "name": "datatokenWeight",
          "type": "uint256"
        },
        {
          "internalType": "address",
          "name": "baseTokenAddress",
          "type": "address"
        },
        {
          "internalType": "uint256",
          "name": "baseTokenAmount",
          "type": "uint256"
        },
        {
          "internalType": "uint256",
          "name": "baseTokenWeight",
          "type": "uint256"
        }
      ],
      "name": "setup",
      "outputs": [],
      "stateMutability": "nonpayable",
      "type": "function"
    },
    {
      "inputs": [
        {
          "internalType": "address[3]",
          "name": "tokenInOutMarket",
          "type": "address[3]"
        },
        {
          "internalType": "uint256[4]",
          "name": "amountsInOutMaxFee",
          "type": "uint256[4]"
        }
      ],
      "name": "swapExactAmountIn",
      "outputs": [
        {
          "internalType": "uint256",
          "name": "tokenAmountOut",
          "type": "uint256"
        },
        {
          "internalType": "uint256",
          "name": "spotPriceAfter",
          "type": "uint256"
        }
      ],
      "stateMutability": "nonpayable",
      "type": "function"
    },
    {
      "inputs": [
        {
          "internalType": "address[3]",
          "name": "tokenInOutMarket",
          "type": "address[3]"
        },
        {
          "internalType": "uint256[4]",
          "name": "amountsInOutMaxFee",
          "type": "uint256[4]"
        }
      ],
      "name": "swapExactAmountOut",
      "outputs": [
        {
          "internalType": "uint256",
          "name": "tokenAmountIn",
          "type": "uint256"
        },
        {
          "internalType": "uint256",
          "name": "spotPriceAfter",
          "type": "uint256"
        }
      ],
      "stateMutability": "nonpayable",
      "type": "function"
    },
    {
      "inputs": [],
      "name": "symbol",
      "outputs": [
        {
          "internalType": "string",
          "name": "",
          "type": "string"
        }
      ],
      "stateMutability": "view",
      "type": "function"
    },
    {
      "inputs": [],
      "name": "totalSupply",
      "outputs": [
        {
          "internalType": "uint256",
          "name": "",
          "type": "uint256"
        }
      ],
      "stateMutability": "view",
      "type": "function"
    },
    {
      "inputs": [
        {
          "internalType": "address",
          "name": "dst",
          "type": "address"
        },
        {
          "internalType": "uint256",
          "name": "amt",
          "type": "uint256"
        }
      ],
      "name": "transfer",
      "outputs": [
        {
          "internalType": "bool",
          "name": "",
          "type": "bool"
        }
      ],
      "stateMutability": "nonpayable",
      "type": "function"
    },
    {
      "inputs": [
        {
          "internalType": "address",
          "name": "src",
          "type": "address"
        },
        {
          "internalType": "address",
          "name": "dst",
          "type": "address"
        },
        {
          "internalType": "uint256",
          "name": "amt",
          "type": "uint256"
        }
      ],
      "name": "transferFrom",
      "outputs": [
        {
          "internalType": "bool",
          "name": "",
          "type": "bool"
        }
      ],
      "stateMutability": "nonpayable",
      "type": "function"
    },
    {
      "inputs": [
        {
          "internalType": "address",
          "name": "_newCollector",
          "type": "address"
        },
        {
          "internalType": "uint256",
          "name": "_newSwapFee",
          "type": "uint256"
        }
      ],
      "name": "updatePublishMarketFee",
      "outputs": [],
      "stateMutability": "nonpayable",
      "type": "function"
    }
  ],
  "bytecode": "0x60c0604052601360808190527f42616c616e63657220506f6f6c20546f6b656e0000000000000000000000000060a09081526200004091600a91906200008f565b506040805180820190915260038082526210941560ea1b60209092019182526200006d91600b916200008f565b50600c805460ff191660121790553480156200008857600080fd5b5062000172565b8280546200009d9062000135565b90600052602060002090601f016020900481019282620000c157600085556200010c565b82601f10620000dc57805160ff19168380011785556200010c565b828001600101855582156200010c579182015b828111156200010c578251825591602001919060010190620000ef565b506200011a9291506200011e565b5090565b5b808211156200011a57600081556001016200011f565b600181811c908216806200014a57607f821691505b602082108114156200016c57634e487b7160e01b600052602260045260246000fd5b50919050565b615aa080620001826000396000f3fe608060405234801561001057600080fd5b506004361061041d5760003560e01c8063867378c51161022b578063bf7db23611610130578063d4cadf68116100b8578063ec09302111610087578063ec093021146108f2578063f1b8a9b7146108fa578063f8b2cb4f1461090d578063fde924f714610920578063ff9b18501461093257600080fd5b8063d4cadf681461089e578063d73dd623146108a6578063dd62ed3e146108b9578063e4a28a521461048457600080fd5b8063c6580d12116100ff578063c6580d1214610860578063c98a59cf14610868578063caa011481461087b578063cc77828d1461088e578063cd2ed8fb1461089657600080fd5b8063bf7db2361461081a578063c36596a6146104d7578063c421a3fc14610830578063c44a42831461085857600080fd5b8063a3b3a16d116101b3578063b7b800a411610182578063b7b800a4146107e5578063ba019dab146107ed578063bc063e1a146107f5578063bc694ea2146107fd578063be3bbd2e1461080557600080fd5b8063a3b3a16d146107b7578063a9059cbb146107ca578063ab77a2de146107dd578063b0e0d136146107e557600080fd5b8063936c3477116101fa578063936c3477146107845780639381cd2b1461078c578063948d8ce61461079457806395d89b41146107a7578063992e2a92146107af57600080fd5b8063867378c514610744578063892cdf9e1461074c5780638c28cbe81461075f5780638d4e40831461077257600080fd5b8063313ce567116103315780635e123add116102b957806376c7a3c71161028857806376c7a3c7146106f85780637a284be4146107005780637c5918b31461070957806380ca7308146107295780638329ab331461073157600080fd5b80635e123add146106a1578063638c9e95146106a957806366188463146106bc57806370a08231146106cf57600080fd5b8063430ed5d011610300578063430ed5d014610617578063458c3fb51461062a5780634df947d01461063b57806351705cd01461064c5780635d1ca6311461069a57600080fd5b8063313ce567146105c657806334e19907146105df578063392e53cd146105f25780633950b3fd1461060457600080fd5b806318f9722a116103b457806329b88a6a1161038357806329b88a6a1461050c5780632eebd6ae146105145780632f37b6241461054f578063300621921461057b5780633018205f1461059b57600080fd5b806318f9722a146104c4578063218b5382146104d757806323b872dd146104e6578063284e97a9146104f957600080fd5b806309ef3f5b116103f057806309ef3f5b1461048c57806312989260146104a157806318160ddd146104b4578063189d00ca146104bc57600080fd5b806306fdde0314610422578063079492d414610440578063095ea7b31461046157806309a3bbe414610484575b600080fd5b61042a610945565b6040516104379190615315565b60405180910390f35b61045361044e36600461535d565b6109d7565b604051908152602001610437565b61047461046f36600461539e565b610a6a565b6040519015158152602001610437565b610453610ac5565b61049f61049a3660046153ca565b610adb565b005b6104536104af366004615426565b610d17565b600954610453565b610453611139565b61049f6104d236600461539e565b611150565b610453670de0b6b3a764000081565b6104746104f436600461535d565b6112c8565b610474610507366004615483565b611417565b610453611708565b610527610522366004615563565b611782565b604080519586526020860194909452928401919091526060830152608082015260a001610437565b61047461055d3660046155a9565b6001600160a01b03166000908152600f602052604090205460ff1690565b6104536105893660046155a9565b60056020526000908152604090205481565b600c546201000090046001600160a01b03165b6040516001600160a01b039091168152602001610437565b600c5460ff165b60405160ff9091168152602001610437565b61049f6105ed3660046155c6565b61185a565b601154600160a01b900460ff16610474565b61045361061236600461539e565b611955565b61045361062536600461539e565b6119ba565b6003546001600160a01b03166105ae565b6004546001600160a01b03166105ae565b61065f61065a3660046155f5565b611a17565b6040805193845260208085019390935281518482015291810151606080850191909152918101516080840152015160a082015260c001610437565b60016105cd565b600054610453565b600d546105ae906001600160a01b031681565b6104746106ca36600461539e565b611bca565b6104536106dd3660046155a9565b6001600160a01b031660009081526007602052604090205490565b610453611ca0565b61045360005481565b6104536107173660046155a9565b60066020526000908152604090205481565b61049f611cb4565b61045361073f366004615426565b611e41565b610453612220565b61065f61075a3660046155f5565b612237565b61049f61076d3660046155a9565b6123cf565b600d54600160a01b900460ff16610474565b610453612549565b61045361257b565b6104536107a23660046155a9565b61258e565b61042a6125e5565b6104536125f4565b6104536107c536600461539e565b612612565b6104746107d836600461539e565b61266f565b61049f612685565b610453600281565b610453600181565b610453612846565b610453612859565b61080d612878565b60405161043791906156c5565b61082261292b565b6040516104379291906156d8565b61084361083e36600461572f565b612a9b565b60408051928352602083019190915201610437565b610822613272565b610453600081565b61084361087636600461572f565b6133d7565b610527610889366004615563565b613b08565b61080d613bb2565b600e54610453565b600154610453565b6104746108b436600461539e565b613bdd565b6104536108c7366004615771565b6001600160a01b03918216600090815260086020908152604080832093909416825291909152205490565b610453613c50565b6104536109083660046155a9565b613c63565b61045361091b3660046155a9565b613cc1565b600c54600160b01b900460ff16610474565b61045361094036600461539e565b613d14565b6060600a80546109549061579f565b80601f01602080910402602001604051908101604052809291908181526020018280546109809061579f565b80156109cd5780601f106109a2576101008083540402835291602001916109cd565b820191906000526020600020905b8154815290600101906020018083116109b057829003601f168201915b5050505050905090565b600c54600090610100900460ff1615610a0b5760405162461bcd60e51b8152600401610a02906157da565b60405180910390fd5b610a1484613d71565b610a1d83613d71565b6001600160a01b038085166000908152600f6020526040808220928616825290206003808301546002808501549284015490840154610a5e93919088613dcc565b925050505b9392505050565b3360008181526008602090815260408083206001600160a01b03871680855292528083208590555191929091600080516020615a4b83398151915290610ab39086815260200190565b60405180910390a35060015b92915050565b610ad8670de0b6b3a76400006032615815565b81565b600c54610100900460ff1615610b035760405162461bcd60e51b8152600401610a02906157da565b600c805461010061ff001990911617908190556201000090046001600160a01b03163314610b6c5760405162461bcd60e51b815260206004820152601660248201527522a9292fa4a72b20a624a22fa1a7a72a2927a62622a960511b6044820152606401610a02565b6003546001600160a01b03878116911614610bc95760405162461bcd60e51b815260206004820152601d60248201527f4552525f494e56414c49445f44415441544f4b454e5f414444524553530000006044820152606401610a02565b6004546001600160a01b03848116911614610c265760405162461bcd60e51b815260206004820152601d60248201527f4552525f494e56414c49445f62617365546f6b656e5f414444524553530000006044820152606401610a02565b610c31868686613e58565b604080518681524260208201526001600160a01b038816913391600080516020615a2b833981519152910160405180910390a3610c6f838383613e58565b604080518381524260208201526001600160a01b038516913391600080516020615a2b833981519152910160405180910390a3610caa614047565b6040805183815260208101839052908101869052606081018590526001600160a01b03808816919085169033907fbece8b4dcdbe446dd65a9288154698e067e3e91de17a1a408c2f531b9f845d739060800160405180910390a45050600c805461ff001916905550505050565b600c54600090610100900460ff1615610d425760405162461bcd60e51b8152600401610a02906157da565b600c805461ff001916610100179055600d54600160a01b900460ff16610d7a5760405162461bcd60e51b8152600401610a0290615834565b600454610d8f906001600160a01b0316613d71565b6004546001600160a01b03166000908152600f602052604090206003810154600954610dbc9190866140a6565b915082821015610dde5760405162461bcd60e51b8152600401610a029061585f565b6004546001600160a01b03166000908152600f6020526040902060030154610e2390610e136002670de0b6b3a764000061589c565b610e1e9060016158b0565b614150565b821115610e665760405162461bcd60e51b81526020600482015260116024820152704552525f4d41585f4f55545f524154494f60781b6044820152606401610a02565b610e74816003015483614235565b6003820155600454604080518481524260208201526001600160a01b039092169133917f9d9058fd2f25ccc389fec7720abef0ca83472f5abfafd5f10d37f51e6a0493f3910160405180910390a36040518481527ffcda32798d5a9d032f49b37fea876d422f18f6e386e0f07db6029b693624b2c29060200160405180910390a1601154600354604051630d098ab360e11b81526001600160a01b03918216600482015260248101879052911690631a13156690604401602060405180830381865afa158015610f48573d6000803e3d6000fd5b505050506040513d601f19601f82011682018060405250810190610f6c91906158c8565b156110fd57600380546001600160a01b03166000908152600f6020526040812091820154600954610f9e9190886140a6565b9050610fae826003015482614235565b60038381019190915554600c54604080518481524260208201526001600160a01b039384169362010000909304909216917f9d9058fd2f25ccc389fec7720abef0ca83472f5abfafd5f10d37f51e6a0493f3910160405180910390a3600c54611026906201000090046001600160a01b031687614292565b61102f8661429c565b600354600c54611052916001600160a01b039081169162010000900416836142a5565b60115460035460405163054a976360e41b81526001600160a01b03918216600482015260248101849052604481018990529116906354a9763090606401600060405180830381600087803b1580156110a957600080fd5b505af11580156110bd573d6000803e3d6000fd5b505050507f87b3975661762d852ddf2eeaad6a43b2d93777de7b3b7bdb634283df32456118866040516110f291815260200190565b60405180910390a150505b6111073385614292565b6111108461429c565b600454611127906001600160a01b031633846142a5565b50600c805461ff001916905592915050565b610ad86402540be400670de0b6b3a764000061589c565b600d546001600160a01b031633146111a25760405162461bcd60e51b815260206004820152601560248201527427a7262c9026a0a925a2aa1021a7a62622a1aa27a960591b6044820152606401610a02565b6001600160a01b0382166111f85760405162461bcd60e51b815260206004820152601d60248201527f496e76616c6964205f6e6577436f6c6c6563746f7220616464726573730000006044820152606401610a02565b8015806112185750611214612710670de0b6b3a764000061589c565b8110155b6112345760405162461bcd60e51b8152600401610a02906158e5565b611247600a670de0b6b3a764000061589c565b8111156112665760405162461bcd60e51b8152600401610a029061590a565b600d80546001600160a01b0319166001600160a01b03841690811790915560008290556040517f5e3e722dbd3b6b8071b78568ac80cd0e8ff92e4fb3024e755d504d8f7c2f6f09916112bc91339190859061592f565b60405180910390a15050565b6000336001600160a01b038516148061130457506001600160a01b03841660009081526008602090815260408083203384529091529020548211155b6113485760405162461bcd60e51b815260206004820152601560248201527422a9292fa12a27a5a2a72fa120a22fa1a0a62622a960591b6044820152606401610a02565b6113538484846142b9565b336001600160a01b0385161480159061139157506001600160a01b038416600090815260086020908152604080832033845290915290205460001914155b1561140d576001600160a01b03841660009081526008602090815260408083203384529091529020546113c49083614235565b6001600160a01b03851660008181526008602090815260408083203380855290835292819020859055519384529092600080516020615a4b833981519152910160405180910390a35b5060019392505050565b601154600090600160a01b900460ff16156114745760405162461bcd60e51b815260206004820152601760248201527f4552525f414c52454144595f494e495449414c495a45440000000000000000006044820152606401610a02565b6001600160a01b0389166114ca5760405162461bcd60e51b815260206004820152601e60248201527f4552525f494e56414c49445f434f4e54524f4c4c45525f4144445245535300006044820152606401610a02565b6001600160a01b0388166115205760405162461bcd60e51b815260206004820152601b60248201527f4552525f494e56414c49445f464143544f52595f4144445245535300000000006044820152606401610a02565b611534612710670de0b6b3a764000061589c565b8787600081811061154757611547615953565b90506020020135101561156c5760405162461bcd60e51b8152600401610a02906158e5565b61157f600a670de0b6b3a764000061589c565b8787600081811061159257611592615953565b9050602002013511156115b75760405162461bcd60e51b8152600401610a029061590a565b868660018181106115ca576115ca615953565b905060200201356000148061160b57506115ee612710670de0b6b3a764000061589c565b8787600181811061160157611601615953565b9050602002013510155b6116275760405162461bcd60e51b8152600401610a02906158e5565b61163a600a670de0b6b3a764000061589c565b8787600181811061164d5761164d615953565b9050602002013511156116725760405162461bcd60e51b8152600401610a029061590a565b6116fb8989898980806020026020016040519081016040528093929190818152602001838360200280828437600092019190915250506040805180820182528c93508b9250908a9060029083908390808284376000920191909152505060408051602081810190925291508a9060019083908390808284376000920191909152506143cb915050565b9998505050505050505050565b6002546004805460405163b8421e2b60e01b81526001600160a01b0391821692810192909252600092169063b8421e2b90602401602060405180830381865afa158015611759573d6000803e3d6000fd5b505050506040513d601f19601f8201168201806040525081019061177d9190615969565b905090565b600080600080600061179389613d71565b61179c88613d71565b604080516080810182526001600160a01b03808c166000908152600f6020818152858320600380820154875260029182015483880152948f168085528383528785209586015497870197909752958352529201546060820152906118216040518060800160405280600081526020016000815260200160008152602001600081525090565b61182c838b8b612237565b805160208201516040830151606090930151949c50909a509850965090945050505050945094509450945094565b600c546201000090046001600160a01b031633146118af5760405162461bcd60e51b815260206004820152601260248201527122a9292fa727aa2fa1a7a72a2927a62622a960711b6044820152606401610a02565b6118c3612710670de0b6b3a764000061589c565b8110156118e25760405162461bcd60e51b8152600401610a02906158e5565b6118f5600a670de0b6b3a764000061589c565b8111156119145760405162461bcd60e51b8152600401610a029061590a565b600181905560408051338152602081018390527fbca0d601c32979eebac4e8cd06375b6e45d39af80fc06a33f366425b450dfb69910160405180910390a150565b6001600160a01b0382166000908152600f602090815260408083208151608081018352815460ff161515815260018201549381019390935260028101549183019190915260030154606082018190526009546119b291908561457d565b949350505050565b6001600160a01b0382166000908152600f602090815260408083208151608081018352815460ff161515815260018201549381019390935260028101549183019190915260030154606082018190526009546119b29190856140a6565b600080611a456040518060800160405280600081526020016000815260200160008152602001600081525090565b6000611a6087600360200201518860015b6020020151614630565b90506000611a75886002602002015188614235565b90506000611a8a896002602002015183614630565b90506000611a988285614748565b9050611aac81670de0b6b3a7640000614235565b90506000805489611abb611708565b600154611ac891906158b0565b611ad291906158b0565b611adc91906158b0565b9050611b0a611af38c60005b602002015184614150565b611b05670de0b6b3a764000084614235565b614630565b9750611b2d88611b288a610e1e670de0b6b3a7640000611b28611708565b614235565b866020018181525050611b5288611b288a610e1e670de0b6b3a7640000600054614235565b866040018181525050611b7788611b288a610e1e670de0b6b3a7640000600154614235565b8652611b9388611b2881610e1e670de0b6b3a76400008e614235565b6060870152611bba611ba68c6000611ae8565b611b05670de0b6b3a7640000600154614235565b9650505050505093509350939050565b3360009081526008602090815260408083206001600160a01b038616845290915281205480831115611c1f573360009081526008602090815260408083206001600160a01b0388168452909152812055611c4e565b611c298184614235565b3360009081526008602090815260408083206001600160a01b03891684529091529020555b3360008181526008602090815260408083206001600160a01b03891680855290835292819020549051908152919291600080516020615a4b833981519152910160405180910390a35060019392505050565b610ad8612710670de0b6b3a764000061589c565b6000611cbe612878565b905060005b8151811015611e3d57600060066000848481518110611ce457611ce4615953565b60200260200101516001600160a01b03166001600160a01b03168152602001908152602001600020549050600060066000858581518110611d2757611d27615953565b60200260200101516001600160a01b03166001600160a01b03168152602001908152602001600020819055507fbaf1ab77be65c7abf8fcd922bfcf0a749f556ac1a4cdf39c126ffaa1851edb5633600d60009054906101000a90046001600160a01b0316858581518110611d9d57611d9d615953565b602002602001015184604051611ddb94939291906001600160a01b039485168152928416602084015292166040820152606081019190915260800190565b60405180910390a1600d548351611e2a916001600160a01b0316908390869086908110611e0a57611e0a615953565b60200260200101516001600160a01b03166148749092919063ffffffff16565b5080611e3581615982565b915050611cc3565b5050565b600c54600090610100900460ff1615611e6c5760405162461bcd60e51b8152600401610a02906157da565b600c805461ff001916610100179055600d54600160a01b900460ff16611ea45760405162461bcd60e51b8152600401610a0290615834565b600454611eb9906001600160a01b0316613d71565b6004546001600160a01b03166000908152600f6020526040902060030154611eee90610e1e6002670de0b6b3a764000061589c565b831115611f305760405162461bcd60e51b815260206004820152601060248201526f4552525f4d41585f494e5f524154494f60801b6044820152606401610a02565b6004546001600160a01b03166000908152600f602052604090206003810154600954611f5d91908661457d565b915082821015611f7f5760405162461bcd60e51b8152600401610a029061585f565b611f8d8160030154856148d7565b6003820155600454604080518681524260208201526001600160a01b03909216913391600080516020615a2b833981519152910160405180910390a36040518281527ffcda32798d5a9d032f49b37fea876d422f18f6e386e0f07db6029b693624b2c29060200160405180910390a1600380546001600160a01b03166000908152600f6020526040812091820154600954612029919086614929565b601154600354604051632afbbacb60e01b81526001600160a01b039182166004820152602481018490529293501690632afbbacb90604401602060405180830381865afa15801561207e573d6000803e3d6000fd5b505050506040513d601f19601f820116820180604052508101906120a291906158c8565b156121e25760115460035460405163ebedb8b360e01b81526001600160a01b0391821660048201526024810184905291169063ebedb8b390604401600060405180830381600087803b1580156120f757600080fd5b505af115801561210b573d6000803e3d6000fd5b5050505061211d8260030154826148d7565b60038381019190915554600c54604080518481524260208201526001600160a01b03938416936201000090930490921691600080516020615a2b833981519152910160405180910390a36040518481527f87b3975661762d852ddf2eeaad6a43b2d93777de7b3b7bdb634283df324561189060200160405180910390a16121a3846149c6565b600c546121bf906201000090046001600160a01b0316856149cf565b600354600c546121e2916001600160a01b039081169162010000900416836149d9565b6121eb846149c6565b6121f533856149cf565b60045461220c906001600160a01b031633886149d9565b505050600c805461ff001916905592915050565b610ad864e8d4a51000670de0b6b3a764000061589c565b6000806122656040518060800160405280600081526020016000815260200160008152602001600081525090565b600061227a8760016020020151886003611a56565b905061229886611b2888610e1e670de0b6b3a7640000611b28611708565b8260200181815250506122bd86611b2888610e1e670de0b6b3a7640000600054614235565b8260400181815250506122e286611b2888610e1e670de0b6b3a7640000600154614235565b82526122fe86611b2881610e1e670de0b6b3a76400008a614235565b6060830152600080548690612311611708565b60015461231e91906158b0565b61232891906158b0565b61233291906158b0565b90506000612348670de0b6b3a764000083614235565b90506123548882614150565b895190915060009061236a90611b0581856148d7565b905060006123788286614748565b9050600061238e670de0b6b3a764000083614235565b90506123a18c6002602002015182614150565b9850886123bc8c89604001518a60200151611b2891906158b0565b9850985050505050505093509350939050565b600c54610100900460ff16156123f75760405162461bcd60e51b8152600401610a02906157da565b600c805461ff0019166101001790556001600160a01b0381166000908152600f602052604090205460ff1661245e5760405162461bcd60e51b815260206004820152600d60248201526c11549497d393d517d093d55391609a1b6044820152606401610a02565b6001600160a01b0381166000818152600f6020526040908190206003015490516370a0823160e01b81523060048201529091906370a0823190602401602060405180830381865afa1580156124b7573d6000803e3d6000fd5b505050506040513d601f19601f820116820180604052508101906124db9190615969565b6001600160a01b0383166000818152600f6020908152604091829020600301849055815192835282018490528101919091527f9facca02b471d2776031537a8c9e281dfe5120035ede107bd328b165ffd973389060600160405180910390a15050600c805461ff0019169055565b600c54600090610100900460ff16156125745760405162461bcd60e51b8152600401610a02906157da565b5060105490565b610ad8670de0b6b3a76400006064615815565b600c54600090610100900460ff16156125b95760405162461bcd60e51b8152600401610a02906157da565b6125c282613d71565b506001600160a01b0381166000908152600f60205260409020600201545b919050565b6060600b80546109549061579f565b6126076002670de0b6b3a764000061589c565b610ad89060016158b0565b6001600160a01b0382166000908152600f602090815260408083208151608081018352815460ff161515815260018201549381019390935260028101549183019190915260030154606082018190526009546119b2919085614b21565b600061267c3384846142b9565b50600192915050565b600061268f612878565b905060005b8151811015611e3d576000600560008484815181106126b5576126b5615953565b60200260200101516001600160a01b03166001600160a01b031681526020019081526020016000205490506000600560008585815181106126f8576126f8615953565b60200260200101516001600160a01b03166001600160a01b03168152602001908152602001600020819055506000600260009054906101000a90046001600160a01b03166001600160a01b0316631a81876d6040518163ffffffff1660e01b8152600401602060405180830381865afa158015612779573d6000803e3d6000fd5b505050506040513d601f19601f8201168201806040525081019061279d919061599d565b90507fed2b0288692cfc6d01c94a67a53721792f59c3d1388221f8aa4f66c8d2808dde33828686815181106127d4576127d4615953565b60200260200101518560405161281294939291906001600160a01b039485168152928416602084015292166040820152606081019190915260800190565b60405180910390a16128318183868681518110611e0a57611e0a615953565b5050808061283e90615982565b915050612694565b610ad8600a670de0b6b3a764000061589c565b600161286e670de0b6b3a76400006002615815565b610ad891906159ba565b600c54606090610100900460ff16156128a35760405162461bcd60e51b8152600401610a02906157da565b600d54600160a01b900460ff166128cc5760405162461bcd60e51b8152600401610a0290615834565b600e8054806020026020016040519081016040528092919081815260200182805480156109cd57602002820191906000526020600020905b81546001600160a01b03168152600190910190602001808311612904575050505050905090565b6060806000612938612878565b90506000815167ffffffffffffffff811115612956576129566155df565b60405190808252806020026020018201604052801561297f578160200160208202803683370190505b5090506000825167ffffffffffffffff81111561299e5761299e6155df565b6040519080825280602002602001820160405280156129c7578160200160208202803683370190505b50905060005b8351811015612a90578381815181106129e8576129e8615953565b6020026020010151838281518110612a0257612a02615953565b60200260200101906001600160a01b031690816001600160a01b03168152505060056000858381518110612a3857612a38615953565b60200260200101516001600160a01b03166001600160a01b0316815260200190815260200160002054828281518110612a7357612a73615953565b602090810291909101015280612a8881615982565b9150506129cd565b509094909350915050565b600c546000908190610100900460ff1615612ac85760405162461bcd60e51b8152600401610a02906157da565b600c805461ff001916610100179055600d54600160a01b900460ff16612b005760405162461bcd60e51b8152600401610a0290615834565b612b1060408501602086016155a9565b6001600160a01b0316612b2660208601866155a9565b6001600160a01b03161415612b765760405162461bcd60e51b815260206004820152601660248201527521b0b73737ba1039bbb0b81039b0b6b2903a37b5b2b760511b6044820152606401610a02565b612b958460005b602002016020810190612b9091906155a9565b613d71565b612ba0846001612b7d565b6000600f81612bb260208801886155a9565b6001600160a01b03168152602081019190915260400160009081209150600f81876001602002016020810190612be891906155a9565b6001600160a01b031681526020810191909152604001600020905060608501351580612c2b5750612c23612710670de0b6b3a764000061589c565b606086013510155b612c705760405162461bcd60e51b8152602060048201526016602482015275436f6e73756d655377617046656520746f6f206c6f7760501b6044820152606401610a02565b612c83600a670de0b6b3a764000061589c565b60608601351115612cd05760405162461bcd60e51b8152602060048201526017602482015276086dedce6eadacaa6eec2e08ccaca40e8dede40d0d2ced604b1b6044820152606401610a02565b6003820154612cec90610e1e6002670de0b6b3a764000061589c565b85351115612d2f5760405162461bcd60e51b815260206004820152601060248201526f4552525f4d41585f494e5f524154494f60801b6044820152606401610a02565b6000612d6583600301548460020154846003015485600201548a600360048110612d5b57612d5b615953565b6020020135613dcc565b90506040860135811115612db15760405162461bcd60e51b81526020600482015260136024820152724552525f4241445f4c494d49545f505249434560681b6044820152606401610a02565b600080604051806080016040528086600301548152602001866002015481526020018560030154815260200185600201548152509050612e126040518060800160405280600081526020016000815260200160008152602001600081525090565b612e22828a3560608c0135612237565b91995093509050612e71600560008c815b602002016020810190612e4691906155a9565b6001600160a01b03166001600160a01b031681526020019081526020016000205482602001516148d7565b60056000612e8260208e018e6155a9565b6001600160a01b03166001600160a01b0316815260200190815260200160002081905550612efe600660008c600060038110612ec057612ec0615953565b602002016020810190612ed391906155a9565b6001600160a01b03166001600160a01b031681526020019081526020016000205482604001516148d7565b60066000612f0f60208e018e6155a9565b6001600160a01b03166001600160a01b03168152602001908152602001600020819055507f53a9dc73d01196a9c660d761bc5ec77b945340a34b5b52e510760af2dab1c0f181600001518260200151836040015184606001518e600060038110612f7b57612f7b615953565b602002016020810190612f8e91906155a9565b6040805195865260208601949094529284019190915260608301526001600160a01b0316608082015260a00160405180910390a16020890135881015612fe65760405162461bcd60e51b8152600401610a029061585f565b612ff48660030154846148d7565b866003018190555061300a856003015489614235565b856003018190555061303c86600301548760020154876003015488600201548d600360048110612d5b57612d5b615953565b96508387101561305e5760405162461bcd60e51b8152600401610a02906159d1565b60408901358711156130a45760405162461bcd60e51b815260206004820152600f60248201526e4552525f4c494d49545f505249434560881b6044820152606401610a02565b6130af893589614630565b8411156130ce5760405162461bcd60e51b8152600401610a02906159d1565b6130de60408b0160208c016155a9565b6001600160a01b03166130f460208c018c6155a9565b60038089015490880154604080518e358152602081018e905242918101919091526060810192909252608082015260a081018a90526001600160a01b03919091169033907fbdafe88494b31fc7436fe7992b0f377e874287e841e62eed1ad77e84f3c5b1719060c00160405180910390a461317d61317560208c018c6155a9565b338b356149d9565b60006131a28a35611b2881610e1e670de0b6b3a76400008f60035b6020020135614235565b905060608a01351561323d576131e68b60025b6020020160208101906131c891906155a9565b826131d660208f018f6155a9565b6001600160a01b03169190614874565b7f6d11837f46cc09b011cf4aae09fcade046c020aac088090ae4f77ff67b70797261321760608d0160408e016155a9565b61322460208e018e6155a9565b836040516132349392919061592f565b60405180910390a15b61325761325060408d0160208e016155a9565b338b6142a5565b50505050505050600c805461ff001916905590939092509050565b606080600061327f612878565b90506000815167ffffffffffffffff81111561329d5761329d6155df565b6040519080825280602002602001820160405280156132c6578160200160208202803683370190505b5090506000825167ffffffffffffffff8111156132e5576132e56155df565b60405190808252806020026020018201604052801561330e578160200160208202803683370190505b50905060005b8351811015612a905783818151811061332f5761332f615953565b602002602001015183828151811061334957613349615953565b60200260200101906001600160a01b031690816001600160a01b0316815250506006600085838151811061337f5761337f615953565b60200260200101516001600160a01b03166001600160a01b03168152602001908152602001600020548282815181106133ba576133ba615953565b6020908102919091010152806133cf81615982565b915050613314565b600c546000908190610100900460ff16156134045760405162461bcd60e51b8152600401610a02906157da565b600c805461ff001916610100179055600d54600160a01b900460ff1661343c5760405162461bcd60e51b8152600401610a0290615834565b61344c60408501602086016155a9565b6001600160a01b031661346260208601866155a9565b6001600160a01b031614156134b25760405162461bcd60e51b815260206004820152601660248201527521b0b73737ba1039bbb0b81039b0b6b2903a37b5b2b760511b6044820152606401610a02565b606083013515806134da57506134d2612710670de0b6b3a764000061589c565b606084013510155b61351f5760405162461bcd60e51b8152602060048201526016602482015275436f6e73756d655377617046656520746f6f206c6f7760501b6044820152606401610a02565b613532600a670de0b6b3a764000061589c565b6060840135111561357f5760405162461bcd60e51b8152602060048201526017602482015276086dedce6eadacaa6eec2e08ccaca40e8dede40d0d2ced604b1b6044820152606401610a02565b61358a846000612b7d565b613595846001612b7d565b6000600f816135a760208801886155a9565b6001600160a01b03168152602081019190915260400160009081209150600f818760016020020160208101906135dd91906155a9565b6001600160a01b03166001600160a01b03168152602001908152602001600020905061361c81600301546002670de0b6b3a7640000610e13919061589c565b602086013511156136635760405162461bcd60e51b81526020600482015260116024820152704552525f4d41585f4f55545f524154494f60781b6044820152606401610a02565b600061368f83600301548460020154846003015485600201548a600360048110612d5b57612d5b615953565b905060408601358111156136db5760405162461bcd60e51b81526020600482015260136024820152724552525f4241445f4c494d49545f505249434560681b6044820152606401610a02565b60008060405180608001604052808660030154815260200186600201548152602001856003015481526020018560020154815250905061373c6040518060800160405280600081526020016000815260200160008152602001600081525090565b61374f8260208b013560608c0135611a17565b91995093509050613764600560008c81612e33565b6005600061377560208e018e6155a9565b6001600160a01b03166001600160a01b03168152602001908152602001600020819055506137b3600660008c600060038110612ec057612ec0615953565b600660006137c460208e018e6155a9565b6001600160a01b03166001600160a01b03168152602001908152602001600020819055507f53a9dc73d01196a9c660d761bc5ec77b945340a34b5b52e510760af2dab1c0f181600001518260200151836040015184606001518e60006003811061383057613830615953565b60200201602081019061384391906155a9565b6040805195865260208601949094529284019190915260608301526001600160a01b0316608082015260a00160405180910390a188358811156138b75760405162461bcd60e51b815260206004820152600c60248201526b22a9292fa624a6a4aa2fa4a760a11b6044820152606401610a02565b6138c58660030154846148d7565b6003808801919091558501546138dd908a6001613198565b856003018190555061390f86600301548760020154876003015488600201548d600360048110612d5b57612d5b615953565b9650838710156139315760405162461bcd60e51b8152600401610a02906159d1565b60408901358711156139775760405162461bcd60e51b815260206004820152600f60248201526e4552525f4c494d49545f505249434560881b6044820152606401610a02565b6139858860208b0135614630565b8411156139a45760405162461bcd60e51b8152600401610a02906159d1565b6139b460408b0160208c016155a9565b6001600160a01b03166139ca60208c018c6155a9565b6001600160a01b0316337fbdafe88494b31fc7436fe7992b0f377e874287e841e62eed1ad77e84f3c5b1718b8d60016020020135428c600301548c600301548f604051613a3f96959493929190958652602086019490945260408501929092526060840152608083015260a082015260c00190565b60405180910390a4613a5e613a5760208c018c6155a9565b338a6149d9565b6000613a7c89611b2881610e1e670de0b6b3a76400008f6003613198565b905060608a013515613aea57613a938b60026131b5565b7f6d11837f46cc09b011cf4aae09fcade046c020aac088090ae4f77ff67b707972613ac460608d0160408e016155a9565b613ad160208e018e6155a9565b83604051613ae19392919061592f565b60405180910390a15b613257613afd60408d0160208e016155a9565b3360208d01356142a5565b6000806000806000613b1989613d71565b613b2288613d71565b604080516080810182526001600160a01b03808c166000908152600f6020818152858320600380820154875260029182015483880152948f16808552838352878520958601549787019790975295835252920154606082015290613ba76040518060800160405280600081526020016000815260200160008152602001600081525090565b61182c838b8b611a17565b600c54606090610100900460ff16156128cc5760405162461bcd60e51b8152600401610a02906157da565b3360009081526008602090815260408083206001600160a01b0386168452909152812054613c0b90836148d7565b3360008181526008602090815260408083206001600160a01b03891680855290835292819020859055519384529092600080516020615a4b8339815191529101610ab3565b610ad86002670de0b6b3a764000061589c565b600c54600090610100900460ff1615613c8e5760405162461bcd60e51b8152600401610a02906157da565b613c9782613d71565b6001600160a01b0382166000908152600f6020526040902060020154601054610a63908290614630565b600c54600090610100900460ff1615613cec5760405162461bcd60e51b8152600401610a02906157da565b613cf582613d71565b506001600160a01b03166000908152600f602052604090206003015490565b6001600160a01b0382166000908152600f602090815260408083208151608081018352815460ff161515815260018201549381019390935260028101549183019190915260030154606082018190526009546119b2919085614929565b6001600160a01b0381166000908152600f602052604090205460ff16613dc95760405162461bcd60e51b815260206004820152600d60248201526c11549497d393d517d093d55391609a1b6044820152606401610a02565b50565b600080613dd98787614630565b90506000613de78686614630565b90506000613df58383614630565b90506000613e3e670de0b6b3a7640000611b05670de0b6b3a764000089600054613e1d611708565b600154613e2a91906158b0565b613e3491906158b0565b611b2891906158b0565b9050613e4a8282614150565b9a9950505050505050505050565b600c546201000090046001600160a01b03163314613ead5760405162461bcd60e51b815260206004820152601260248201527122a9292fa727aa2fa1a7a72a2927a62622a960711b6044820152606401610a02565b6001600160a01b0383166000908152600f602052604090205460ff1615613f055760405162461bcd60e51b815260206004820152600c60248201526b11549497d254d7d093d5539160a21b6044820152606401610a02565b600d54600160a01b900460ff1615613f525760405162461bcd60e51b815260206004820152601060248201526f11549497d254d7d1925390531256915160821b6044820152606401610a02565b600e54600211613f955760405162461bcd60e51b815260206004820152600e60248201526d4552525f4d41585f544f4b454e5360901b6044820152606401610a02565b604080516080810182526001808252600e805460208085019182526000858701818152606087018281526001600160a01b038c16808452600f9094529782209651875460ff1916901515178755925186860155915160028601559451600390940193909355805491820181559091527fbb7b4a454dc3493923482f07822329ed19e8244eff582cc204f8554c3620c3fd0180546001600160a01b0319169091179055614042838383614bbe565b505050565b600d805460ff60a01b1916600160a01b179055600c805460ff60b01b1916600160b01b179055614088614083670de0b6b3a76400006064615815565b6149c6565b6140a43361409f670de0b6b3a76400006064615815565b6149cf565b565b600060018210156140f95760405162461bcd60e51b815260206004820152601a60248201527f4552525f504f4f4c5f414d4f554e545f494e5f544f4f5f4c4f570000000000006044820152606401610a02565b614104826002615815565b915060006141128484614235565b905060006141208286614630565b90506000614136670de0b6b3a764000083614235565b905060006141448289614150565b98975050505050505050565b60008061415d8385615815565b9050831580614174575082614172858361589c565b145b6141b35760405162461bcd60e51b815260206004820152601060248201526f4552525f4d554c5f4f564552464c4f5760801b6044820152606401610a02565b60006141c86002670de0b6b3a764000061589c565b6141d290836158b0565b9050818110156142175760405162461bcd60e51b815260206004820152601060248201526f4552525f4d554c5f4f564552464c4f5760801b6044820152606401610a02565b600061422b670de0b6b3a76400008361589c565b9695505050505050565b60008060006142448585614ddd565b91509150801561428a5760405162461bcd60e51b81526020600482015260116024820152704552525f5355425f554e444552464c4f5760781b6044820152606401610a02565b509392505050565b611e3d8282614e14565b613dc981614e1f565b6140426001600160a01b0384168383614874565b6001600160a01b0383166000908152600760205260409020548111156143185760405162461bcd60e51b815260206004820152601460248201527311549497d25394d551919250d251539517d0905360621b6044820152606401610a02565b6001600160a01b03831660009081526007602052604090205461433b9082614235565b6001600160a01b03808516600090815260076020526040808220939093559084168152205461436a90826148d7565b6001600160a01b0380841660008181526007602052604090819020939093559151908516907fddf252ad1be2c89b69c2b068fc378daa952ba7f163c4a11628f55a4df523b3ef906143be9085815260200190565b60405180910390a3505050565b600c805462010000600160b01b031916620100006001600160a01b038a81169190910291909117909155600280546001600160a01b03191691881691909117905584516000908690829061442157614421615953565b602090810291909101810151600181905560408051338152928301919091527fbca0d601c32979eebac4e8cd06375b6e45d39af80fc06a33f366425b450dfb69910160405180910390a18560018151811061447e5761447e615953565b6020908102919091018101516000819055600c8054881515600160b01b0260ff60b01b19909116179055600d80548651600380546001600160a01b039283166001600160a01b0319918216179091559488015160048054918316918716919091179055865116881515600160a01b02949094166001600160a81b031990911617831790556040517f5e3e722dbd3b6b8071b78568ac80cd0e8ff92e4fb3024e755d504d8f7c2f6f099261453292339261592f565b60405180910390a1505060118054600c54600160a01b620100009091046001600160a01b03166001600160a81b03199092169190911781179182905560ff9104169695505050505050565b60008061459283670de0b6b3a7640000614150565b905060006145a086836148d7565b905060006145ae8288614630565b905060006145c482670de0b6b3a7640000614235565b905060006145d28289614150565b905060028110156146255760405162461bcd60e51b815260206004820152601b60248201527f4552525f544f4b454e5f414d4f554e545f494e5f544f4f5f4c4f5700000000006044820152606401610a02565b6116fb60028261589c565b60008161466e5760405162461bcd60e51b815260206004820152600c60248201526b4552525f4449565f5a45524f60a01b6044820152606401610a02565b6000614682670de0b6b3a764000085615815565b90508315806146a15750670de0b6b3a764000061469f858361589c565b145b6146e05760405162461bcd60e51b815260206004820152601060248201526f11549497d1125597d25395115493905360821b6044820152606401610a02565b60006146ed60028561589c565b6146f790836158b0565b90508181101561473c5760405162461bcd60e51b815260206004820152601060248201526f11549497d1125597d25395115493905360821b6044820152606401610a02565b600061422b858361589c565b600060018310156147935760405162461bcd60e51b81526020600482015260156024820152744552525f42504f575f424153455f544f4f5f4c4f5760581b6044820152606401610a02565b60016147a8670de0b6b3a76400006002615815565b6147b291906159ba565b8311156147fa5760405162461bcd60e51b815260206004820152601660248201527508aa4a4be84a09eaebe8482a68abea89e9ebe90928e960531b6044820152606401610a02565b600061480583614eeb565b905060006148138483614235565b905060006148298661482485614f09565b614f1d565b90508161483a579250610abf915050565b600061485d87846148586402540be400670de0b6b3a764000061589c565b614f91565b90506148698282614150565b979650505050505050565b6040516001600160a01b03831660248201526044810182905261404290849063a9059cbb60e01b906064015b60408051601f198184030181529190526020810180516001600160e01b03166001600160e01b031990931692909217909152615081565b6000806148e483856158b0565b905083811015610a635760405162461bcd60e51b815260206004820152601060248201526f4552525f4144445f4f564552464c4f5760801b6044820152606401610a02565b60008061493684846148d7565b905060006149448286614630565b9050600061495a82670de0b6b3a7640000614235565b905060006149688289614150565b905060018110156149bb5760405162461bcd60e51b815260206004820152601b60248201527f4552525f504f4f4c5f414d4f554e545f4f55545f544f4f5f4c4f5700000000006044820152606401610a02565b614144816002615815565b613dc981615153565b611e3d82826151c2565b6040516370a0823160e01b81523060048201526000906001600160a01b038516906370a0823190602401602060405180830381865afa158015614a20573d6000803e3d6000fd5b505050506040513d601f19601f82011682018060405250810190614a449190615969565b9050614a5b6001600160a01b0385168430856151cd565b614a6582826158b0565b6040516370a0823160e01b81523060048201526001600160a01b038616906370a0823190602401602060405180830381865afa158015614aa9573d6000803e3d6000fd5b505050506040513d601f19601f82011682018060405250810190614acd9190615969565b1015614b1b5760405162461bcd60e51b815260206004820152601a60248201527f5472616e7366657220616d6f756e7420697320746f6f206c6f770000000000006044820152606401610a02565b50505050565b600080614b2e8584614235565b90506000614b3c8287614630565b90506000614b52670de0b6b3a764000083614235565b90506000614b608288614150565b90506002811015614bb35760405162461bcd60e51b815260206004820152601c60248201527f4552525f544f4b454e5f414d4f554e545f4f55545f544f4f5f4c4f57000000006044820152606401610a02565b61414460028261589c565b670de0b6b3a7640000811015614c075760405162461bcd60e51b815260206004820152600e60248201526d11549497d3525397d5d15251d21560921b6044820152606401610a02565b614c1a670de0b6b3a76400006032615815565b811115614c5a5760405162461bcd60e51b815260206004820152600e60248201526d11549497d3505617d5d15251d21560921b6044820152606401610a02565b614c7164e8d4a51000670de0b6b3a764000061589c565b821015614cb25760405162461bcd60e51b815260206004820152600f60248201526e4552525f4d494e5f42414c414e434560881b6044820152606401610a02565b6001600160a01b0383166000908152600f602052604090206002015480821115614d4e57614ceb601054614ce68484614235565b6148d7565b601055614d01670de0b6b3a76400006032615815565b6010541115614d495760405162461bcd60e51b815260206004820152601460248201527311549497d3505617d513d5105317d5d15251d21560621b6044820152606401610a02565b614d6a565b80821015614d6a57614d66601054611b288385614235565b6010555b6001600160a01b0384166000908152600f602052604090206002810183905560030180549084905580841115614db357614dae8533614da98785614235565b6149d9565b614dd6565b80841015614dd6576000614dc78286614235565b9050614dd48633836142a5565b505b5050505050565b600080828410614dfc57614df183856159ba565b600091509150614e0d565b614e0684846159ba565b6001915091505b9250929050565b611e3d8230836142b9565b30600090815260076020526040902054811115614e755760405162461bcd60e51b815260206004820152601460248201527311549497d25394d551919250d251539517d0905360621b6044820152606401610a02565b30600090815260076020526040902054614e8f9082614235565b30600090815260076020526040902055600954614eac9082614235565b60095560405181815260009030907fddf252ad1be2c89b69c2b068fc378daa952ba7f163c4a11628f55a4df523b3ef906020015b60405180910390a350565b6000670de0b6b3a7640000614eff83614f09565b610abf9190615815565b6000610abf670de0b6b3a76400008361589c565b60008281614f2c6002856159fa565b614f3e57670de0b6b3a7640000614f40565b815b9050614f4d60028561589c565b93505b83156119b257614f608283614150565b9150614f6d6002856159fa565b15614f7f57614f7c8183614150565b90505b614f8a60028561589c565b9350614f50565b6000828180614fa887670de0b6b3a7640000614ddd565b9092509050670de0b6b3a764000080600060015b888410615072576000614fd7670de0b6b3a764000083615815565b9050600080614ff78a614ff285670de0b6b3a7640000614235565b614ddd565b9150915061500987610e1e848c614150565b96506150158784614630565b96508661502457505050615072565b871561502e579315935b8015615038579315935b841561504f576150488688614235565b955061505c565b61505986886148d7565b95505b505050808061506a90615982565b915050614fbc565b50909998505050505050505050565b60006150d6826040518060400160405280602081526020017f5361666545524332303a206c6f772d6c6576656c2063616c6c206661696c6564815250856001600160a01b03166151ee9092919063ffffffff16565b80519091501561404257808060200190518101906150f491906158c8565b6140425760405162461bcd60e51b815260206004820152602a60248201527f5361666545524332303a204552433230206f7065726174696f6e20646964206e6044820152691bdd081cdd58d8d9595960b21b6064820152608401610a02565b3060009081526007602052604090205461516d90826148d7565b3060009081526007602052604090205560095461518a90826148d7565b60095560405181815230906000907fddf252ad1be2c89b69c2b068fc378daa952ba7f163c4a11628f55a4df523b3ef90602001614ee0565b611e3d3083836142b9565b614b1b846323b872dd60e01b8585856040516024016148a09392919061592f565b60606119b2848460008585843b6152475760405162461bcd60e51b815260206004820152601d60248201527f416464726573733a2063616c6c20746f206e6f6e2d636f6e74726163740000006044820152606401610a02565b600080866001600160a01b031685876040516152639190615a0e565b60006040518083038185875af1925050503d80600081146152a0576040519150601f19603f3d011682016040523d82523d6000602084013e6152a5565b606091505b5091509150614869828286606083156152bf575081610a63565b8251156152cf5782518084602001fd5b8160405162461bcd60e51b8152600401610a029190615315565b60005b838110156153045781810151838201526020016152ec565b83811115614b1b5750506000910152565b60208152600082518060208401526153348160408501602087016152e9565b601f01601f19169190910160400192915050565b6001600160a01b0381168114613dc957600080fd5b60008060006060848603121561537257600080fd5b833561537d81615348565b9250602084013561538d81615348565b929592945050506040919091013590565b600080604083850312156153b157600080fd5b82356153bc81615348565b946020939093013593505050565b60008060008060008060c087890312156153e357600080fd5b86356153ee81615348565b95506020870135945060408701359350606087013561540c81615348565b9598949750929560808101359460a0909101359350915050565b6000806040838503121561543957600080fd5b50508035926020909101359150565b8015158114613dc957600080fd5b80356125e081615448565b8060408101831015610abf57600080fd5b8060208101831015610abf57600080fd5b600080600080600080600080610100898b0312156154a057600080fd5b88356154ab81615348565b975060208901356154bb81615348565b9650604089013567ffffffffffffffff808211156154d857600080fd5b818b0191508b601f8301126154ec57600080fd5b8135818111156154fb57600080fd5b8c60208260051b850101111561551057600080fd5b60208301985080975050505061552860608a01615456565b935061553660808a01615456565b92506155458a60a08b01615461565b91506155548a60e08b01615472565b90509295985092959890939650565b6000806000806080858703121561557957600080fd5b843561558481615348565b9350602085013561559481615348565b93969395505050506040820135916060013590565b6000602082840312156155bb57600080fd5b8135610a6381615348565b6000602082840312156155d857600080fd5b5035919050565b634e487b7160e01b600052604160045260246000fd5b600080600060c0848603121561560a57600080fd5b84601f85011261561957600080fd5b6040516080810181811067ffffffffffffffff8211171561563c5761563c6155df565b60405280608086018781111561565157600080fd5b865b8181101561566b578035835260209283019201615653565b509197913596505060a094909401359392505050565b600081518084526020808501945080840160005b838110156156ba5781516001600160a01b031687529582019590820190600101615695565b509495945050505050565b602081526000610a636020830184615681565b6040815260006156eb6040830185615681565b82810360208481019190915284518083528582019282019060005b8181101561572257845183529383019391830191600101615706565b5090979650505050505050565b60008060e0838503121561574257600080fd5b606083018481111561575357600080fd5b8392508460e08501111561576657600080fd5b809150509250929050565b6000806040838503121561578457600080fd5b823561578f81615348565b9150602083013561576681615348565b600181811c908216806157b357607f821691505b602082108114156157d457634e487b7160e01b600052602260045260246000fd5b50919050565b6020808252600b908201526a4552525f5245454e54525960a81b604082015260600190565b634e487b7160e01b600052601160045260246000fd5b600081600019048311821515161561582f5761582f6157ff565b500290565b60208082526011908201527011549497d393d517d19253905312569151607a1b604082015260600190565b6020808252600d908201526c11549497d31253525517d3d555609a1b604082015260600190565b634e487b7160e01b600052601260045260246000fd5b6000826158ab576158ab615886565b500490565b600082198211156158c3576158c36157ff565b500190565b6000602082840312156158da57600080fd5b8151610a6381615448565b6020808252600b908201526a4552525f4d494e5f46454560a81b604082015260600190565b6020808252600b908201526a4552525f4d41585f46454560a81b604082015260600190565b6001600160a01b039384168152919092166020820152604081019190915260600190565b634e487b7160e01b600052603260045260246000fd5b60006020828403121561597b57600080fd5b5051919050565b6000600019821415615996576159966157ff565b5060010190565b6000602082840312156159af57600080fd5b8151610a6381615348565b6000828210156159cc576159cc6157ff565b500390565b6020808252600f908201526e08aa4a4be9a82a890be82a0a0a49eb608b1b604082015260600190565b600082615a0957615a09615886565b500690565b60008251615a208184602087016152e9565b919091019291505056fe15a8ca63e37b2cff1677df2b6b82d36fcf8a524228bd7a4b4d02d107c28c1e8a8c5be1e5ebec7d5bd14f71427d1e84f3dd0314c0f7b2291e5b200ac8c7c3b925a26469706673582212206df6cd469cdcb4e58007972fa98fd7842aa6dba794a79ac07dad9c573122f19964736f6c634300080c0033",
  "linkReferences": {},
  "deployedLinkReferences": {}
}