{
  "_format": "hh-sol-artifact-1",
  "contractName": "BToken",
  "sourceName": "contracts/pools/balancer/BToken.sol",
  "abi": [
    {
      "anonymous": false,
      "inputs": [
        {
          "indexed": true,
          "internalType": "address",
          "name": "src",
          "type": "address"
        },
        {
          "indexed": true,
          "internalType": "address",
          "name": "dst",
          "type": "address"
        },
        {
          "indexed": false,
          "internalType": "uint256",
          "name": "amt",
          "type": "uint256"
        }
      ],
      "name": "Approval",
      "type": "event"
    },
    {
      "anonymous": false,
      "inputs": [
        {
          "indexed": true,
          "internalType": "address",
          "name": "src",
          "type": "address"
        },
        {
          "indexed": true,
          "internalType": "address",
          "name": "dst",
          "type": "address"
        },
        {
          "indexed": false,
          "internalType": "uint256",
          "name": "amt",
          "type": "uint256"
        }
      ],
      "name": "Transfer",
      "type": "event"
    },
    {
      "inputs": [],
      "name": "BONE",
      "outputs": [
        {
          "internalType": "uint256",
          "name": "",
          "type": "uint256"
        }
      ],
      "stateMutability": "view",
      "type": "function"
    },
    {
      "inputs": [],
      "name": "BPOW_PRECISION",
      "outputs": [
        {
          "internalType": "uint256",
          "name": "",
          "type": "uint256"
        }
      ],
      "stateMutability": "view",
      "type": "function"
    },
    {
      "inputs": [],
      "name": "EXIT_FEE",
      "outputs": [
        {
          "internalType": "uint256",
          "name": "",
          "type": "uint256"
        }
      ],
      "stateMutability": "view",
      "type": "function"
    },
    {
      "inputs": [],
      "name": "INIT_POOL_SUPPLY",
      "outputs": [
        {
          "internalType": "uint256",
          "name": "",
          "type": "uint256"
        }
      ],
      "stateMutability": "view",
      "type": "function"
    },
    {
      "inputs": [],
      "name": "MAX_BOUND_TOKENS",
      "outputs": [
        {
          "internalType": "uint256",
          "name": "",
          "type": "uint256"
        }
      ],
      "stateMutability": "view",
      "type": "function"
    },
    {
      "inputs": [],
      "name": "MAX_BPOW_BASE",
      "outputs": [
        {
          "internalType": "uint256",
          "name": "",
          "type": "uint256"
        }
      ],
      "stateMutability": "view",
      "type": "function"
    },
    {
      "inputs": [],
      "name": "MAX_FEE",
      "outputs": [
        {
          "internalType": "uint256",
          "name": "",
          "type": "uint256"
        }
      ],
      "stateMutability": "view",
      "type": "function"
    },
    {
      "inputs": [],
      "name": "MAX_IN_RATIO",
      "outputs": [
        {
          "internalType": "uint256",
          "name": "",
          "type": "uint256"
        }
      ],
      "stateMutability": "view",
      "type": "function"
    },
    {
      "inputs": [],
      "name": "MAX_OUT_RATIO",
      "outputs": [
        {
          "internalType": "uint256",
          "name": "",
          "type": "uint256"
        }
      ],
      "stateMutability": "view",
      "type": "function"
    },
    {
      "inputs": [],
      "name": "MAX_TOTAL_WEIGHT",
      "outputs": [
        {
          "internalType": "uint256",
          "name": "",
          "type": "uint256"
        }
      ],
      "stateMutability": "view",
      "type": "function"
    },
    {
      "inputs": [],
      "name": "MAX_WEIGHT",
      "outputs": [
        {
          "internalType": "uint256",
          "name": "",
          "type": "uint256"
        }
      ],
      "stateMutability": "view",
      "type": "function"
    },
    {
      "inputs": [],
      "name": "MIN_BALANCE",
      "outputs": [
        {
          "internalType": "uint256",
          "name": "",
          "type": "uint256"
        }
      ],
      "stateMutability": "view",
      "type": "function"
    },
    {
      "inputs": [],
      "name": "MIN_BOUND_TOKENS",
      "outputs": [
        {
          "internalType": "uint256",
          "name": "",
          "type": "uint256"
        }
      ],
      "stateMutability": "view",
      "type": "function"
    },
    {
      "inputs": [],
      "name": "MIN_BPOW_BASE",
      "outputs": [
        {
          "internalType": "uint256",
          "name": "",
          "type": "uint256"
        }
      ],
      "stateMutability": "view",
      "type": "function"
    },
    {
      "inputs": [],
      "name": "MIN_FEE",
      "outputs": [
        {
          "internalType": "uint256",
          "name": "",
          "type": "uint256"
        }
      ],
      "stateMutability": "view",
      "type": "function"
    },
    {
      "inputs": [],
      "name": "MIN_WEIGHT",
      "outputs": [
        {
          "internalType": "uint256",
          "name": "",
          "type": "uint256"
        }
      ],
      "stateMutability": "view",
      "type": "function"
    },
    {
      "inputs": [
        {
          "internalType": "address",
          "name": "src",
          "type": "address"
        },
        {
          "internalType": "address",
          "name": "dst",
          "type": "address"
        }
      ],
      "name": "allowance",
      "outputs": [
        {
          "internalType": "uint256",
          "name": "",
          "type": "uint256"
        }
      ],
      "stateMutability": "view",
      "type": "function"
    },
    {
      "inputs": [
        {
          "internalType": "address",
          "name": "dst",
          "type": "address"
        },
        {
          "internalType": "uint256",
          "name": "amt",
          "type": "uint256"
        }
      ],
      "name": "approve",
      "outputs": [
        {
          "internalType": "bool",
          "name": "",
          "type": "bool"
        }
      ],
      "stateMutability": "nonpayable",
      "type": "function"
    },
    {
      "inputs": [
        {
          "internalType": "address",
          "name": "whom",
          "type": "address"
        }
      ],
      "name": "balanceOf",
      "outputs": [
        {
          "internalType": "uint256",
          "name": "",
          "type": "uint256"
        }
      ],
      "stateMutability": "view",
      "type": "function"
    },
    {
      "inputs": [],
      "name": "decimals",
      "outputs": [
        {
          "internalType": "uint8",
          "name": "",
          "type": "uint8"
        }
      ],
      "stateMutability": "view",
      "type": "function"
    },
    {
      "inputs": [
        {
          "internalType": "address",
          "name": "dst",
          "type": "address"
        },
        {
          "internalType": "uint256",
          "name": "amt",
          "type": "uint256"
        }
      ],
      "name": "decreaseApproval",
      "outputs": [
        {
          "internalType": "bool",
          "name": "",
          "type": "bool"
        }
      ],
      "stateMutability": "nonpayable",
      "type": "function"
    },
    {
      "inputs": [
        {
          "internalType": "address",
          "name": "dst",
          "type": "address"
        },
        {
          "internalType": "uint256",
          "name": "amt",
          "type": "uint256"
        }
      ],
      "name": "increaseApproval",
      "outputs": [
        {
          "internalType": "bool",
          "name": "",
          "type": "bool"
        }
      ],
      "stateMutability": "nonpayable",
      "type": "function"
    },
    {
      "inputs": [],
      "name": "name",
      "outputs": [
        {
          "internalType": "string",
          "name": "",
          "type": "string"
        }
      ],
      "stateMutability": "view",
      "type": "function"
    },
    {
      "inputs": [],
      "name": "symbol",
      "outputs": [
        {
          "internalType": "string",
          "name": "",
          "type": "string"
        }
      ],
      "stateMutability": "view",
      "type": "function"
    },
    {
      "inputs": [],
      "name": "totalSupply",
      "outputs": [
        {
          "internalType": "uint256",
          "name": "",
          "type": "uint256"
        }
      ],
      "stateMutability": "view",
      "type": "function"
    },
    {
      "inputs": [
        {
          "internalType": "address",
          "name": "dst",
          "type": "address"
        },
        {
          "internalType": "uint256",
          "name": "amt",
          "type": "uint256"
        }
      ],
      "name": "transfer",
      "outputs": [
        {
          "internalType": "bool",
          "name": "",
          "type": "bool"
        }
      ],
      "stateMutability": "nonpayable",
      "type": "function"
    },
    {
      "inputs": [
        {
          "internalType": "address",
          "name": "src",
          "type": "address"
        },
        {
          "internalType": "address",
          "name": "dst",
          "type": "address"
        },
        {
          "internalType": "uint256",
          "name": "amt",
          "type": "uint256"
        }
      ],
      "name": "transferFrom",
      "outputs": [
        {
          "internalType": "bool",
          "name": "",
          "type": "bool"
        }
      ],
      "stateMutability": "nonpayable",
      "type": "function"
    }
  ],
  "bytecode": "0x60c0604052601360808190527f42616c616e63657220506f6f6c20546f6b656e0000000000000000000000000060a090815261003e9160039190610089565b506040805180820190915260038082526210941560ea1b602090920191825261006991600491610089565b506005805460ff1916601217905534801561008357600080fd5b5061015d565b82805461009590610122565b90600052602060002090601f0160209004810192826100b757600085556100fd565b82601f106100d057805160ff19168380011785556100fd565b828001600101855582156100fd579182015b828111156100fd5782518255916020019190600101906100e2565b5061010992915061010d565b5090565b5b80821115610109576000815560010161010e565b600181811c9082168061013657607f821691505b6020821081141561015757634e487b7160e01b600052602260045260246000fd5b50919050565b610bee806200016d6000396000f3fe608060405234801561001057600080fd5b50600436106101a95760003560e01c806395d89b41116100f9578063bc694ea211610097578063d73dd62311610071578063d73dd623146102eb578063dd62ed3e146102fe578063e4a28a52146101ef578063ec0930211461033757600080fd5b8063bc694ea2146102db578063c36596a614610215578063c6580d12146102e357600080fd5b8063b0e0d136116100d3578063b0e0d136146102c3578063b7b800a4146102c3578063ba019dab146102cb578063bc063e1a146102d357600080fd5b806395d89b41146102a0578063992e2a92146102a8578063a9059cbb146102b057600080fd5b806323b872dd1161016657806370a082311161014057806370a082311461025f57806376c7a3c714610288578063867378c5146102905780639381cd2b1461029857600080fd5b806323b872dd14610224578063313ce56714610237578063661884631461024c57600080fd5b806306fdde03146101ae578063095ea7b3146101cc57806309a3bbe4146101ef57806318160ddd14610205578063189d00ca1461020d578063218b538214610215575b600080fd5b6101b661033f565b6040516101c391906109b2565b60405180910390f35b6101df6101da366004610a23565b6103d1565b60405190151581526020016101c3565b6101f761042b565b6040519081526020016101c3565b6002546101f7565b6101f7610441565b6101f7670de0b6b3a764000081565b6101df610232366004610a4d565b610458565b60055460405160ff90911681526020016101c3565b6101df61025a366004610a23565b6105ac565b6101f761026d366004610a89565b6001600160a01b031660009081526020819052604090205490565b6101f7610682565b6101f7610696565b6101f76106ad565b6101b66106c0565b6101f76106cf565b6101df6102be366004610a23565b6106ed565b6101f7600281565b6101f7600181565b6101f7610703565b6101f7610716565b6101f7600081565b6101df6102f9366004610a23565b610735565b6101f761030c366004610aa4565b6001600160a01b03918216600090815260016020908152604080832093909416825291909152205490565b6101f76107a8565b60606003805461034e90610ad7565b80601f016020809104026020016040519081016040528092919081815260200182805461037a90610ad7565b80156103c75780601f1061039c576101008083540402835291602001916103c7565b820191906000526020600020905b8154815290600101906020018083116103aa57829003601f168201915b5050505050905090565b3360008181526001602090815260408083206001600160a01b03871680855292528083208590555191929091600080516020610b998339815191529061041a9086815260200190565b60405180910390a350600192915050565b61043e670de0b6b3a76400006032610b28565b81565b61043e6402540be400670de0b6b3a7640000610b47565b6000336001600160a01b038516148061049457506001600160a01b03841660009081526001602090815260408083203384529091529020548211155b6104dd5760405162461bcd60e51b815260206004820152601560248201527422a9292fa12a27a5a2a72fa120a22fa1a0a62622a960591b60448201526064015b60405180910390fd5b6104e88484846107bb565b336001600160a01b0385161480159061052657506001600160a01b038416600090815260016020908152604080832033845290915290205460001914155b156105a2576001600160a01b038416600090815260016020908152604080832033845290915290205461055990836108c5565b6001600160a01b03851660008181526001602090815260408083203380855290835292819020859055519384529092600080516020610b99833981519152910160405180910390a35b5060019392505050565b3360009081526001602090815260408083206001600160a01b038616845290915281205480831115610601573360009081526001602090815260408083206001600160a01b0388168452909152812055610630565b61060b81846108c5565b3360009081526001602090815260408083206001600160a01b03891684529091529020555b3360008181526001602090815260408083206001600160a01b03891680855290835292819020549051908152919291600080516020610b99833981519152910160405180910390a35060019392505050565b61043e612710670de0b6b3a7640000610b47565b61043e64e8d4a51000670de0b6b3a7640000610b47565b61043e670de0b6b3a76400006064610b28565b60606004805461034e90610ad7565b6106e26002670de0b6b3a7640000610b47565b61043e906001610b69565b60006106fa3384846107bb565b50600192915050565b61043e600a670de0b6b3a7640000610b47565b600161072b670de0b6b3a76400006002610b28565b61043e9190610b81565b3360009081526001602090815260408083206001600160a01b03861684529091528120546107639083610922565b3360008181526001602090815260408083206001600160a01b03891680855290835292819020859055519384529092600080516020610b99833981519152910161041a565b61043e6002670de0b6b3a7640000610b47565b6001600160a01b03831660009081526020819052604090205481111561081a5760405162461bcd60e51b815260206004820152601460248201527311549497d25394d551919250d251539517d0905360621b60448201526064016104d4565b6001600160a01b03831660009081526020819052604090205461083d90826108c5565b6001600160a01b03808516600090815260208190526040808220939093559084168152205461086c9082610922565b6001600160a01b038381166000818152602081815260409182902094909455518481529092918616917fddf252ad1be2c89b69c2b068fc378daa952ba7f163c4a11628f55a4df523b3ef910160405180910390a3505050565b60008060006108d4858561097b565b91509150801561091a5760405162461bcd60e51b81526020600482015260116024820152704552525f5355425f554e444552464c4f5760781b60448201526064016104d4565b509392505050565b60008061092f8385610b69565b9050838110156109745760405162461bcd60e51b815260206004820152601060248201526f4552525f4144445f4f564552464c4f5760801b60448201526064016104d4565b9392505050565b60008082841061099a5761098f8385610b81565b6000915091506109ab565b6109a48484610b81565b6001915091505b9250929050565b600060208083528351808285015260005b818110156109df578581018301518582016040015282016109c3565b818111156109f1576000604083870101525b50601f01601f1916929092016040019392505050565b80356001600160a01b0381168114610a1e57600080fd5b919050565b60008060408385031215610a3657600080fd5b610a3f83610a07565b946020939093013593505050565b600080600060608486031215610a6257600080fd5b610a6b84610a07565b9250610a7960208501610a07565b9150604084013590509250925092565b600060208284031215610a9b57600080fd5b61097482610a07565b60008060408385031215610ab757600080fd5b610ac083610a07565b9150610ace60208401610a07565b90509250929050565b600181811c90821680610aeb57607f821691505b60208210811415610b0c57634e487b7160e01b600052602260045260246000fd5b50919050565b634e487b7160e01b600052601160045260246000fd5b6000816000190483118215151615610b4257610b42610b12565b500290565b600082610b6457634e487b7160e01b600052601260045260246000fd5b500490565b60008219821115610b7c57610b7c610b12565b500190565b600082821015610b9357610b93610b12565b50039056fe8c5be1e5ebec7d5bd14f71427d1e84f3dd0314c0f7b2291e5b200ac8c7c3b925a26469706673582212200de61ce0f10ca4c4a21159981d10c72a2a836cb56ebc07fa3558101e7fe1b00764736f6c634300080c0033",
  "linkReferences": {},
  "deployedLinkReferences": {}
}